:040000001DEF09F0F7
:1000080000C017F00CC016F00DC015F09EA016D059
:100018009E903C0ECF6EB00ECE6E0001CC4BCD2B19
:10002800D44BD52BD64BD72BD84BD92BDA4BDB2B34
:10003800C84BC92BDC4BDD2BE04BE12BF2A40CD0D9
:100048000001F2943C0ED76EB00ED66EBE4BBF2B9D
:10005800C04BC12BC24BC32B79EC08F050EC08F015
:10006800FEEC07F027EC08F017C000F016C00CF003
:0600780015C00DF011009F
:06007E000000000012006A
:100084000F0E0C6E470E0D6E0D2EFED70C2EFCD7E8
:0600940000000000120054
:0A009A00210E0D6E0D2EFED7120090
:1000A4000001F8BF02D0839E01D0838EF8BD02D038
:1000B400839C01D0838CF8BB02D0839A01D0838ABD
:1000C400F8B902D0839801D08388E4BB02D083843A
:1000D40001D083948386D1DF8396F8B702D0839EC0
:1000E40001D0838EF8B502D0839C01D0838CF8B301
:1000F40002D0839A01D0838AF8B102D0839801D0C8
:100104008388E4BB02D0838401D083948386B5DFE3
:0E0114008396E4AB02D0B4DF01D0BDDF120051
:0E0122000001E49BF7C0F8F0BCDFE48B120094
:0C0130000001E49DE587CE6BCF6B120050
:0C013C000001E595E581D26BD36B120049
:0C0148000001E593E48FCA6BCB6B120042
:10015400000E0001CB5D02E10A0ECA5D18E2809236
:100164002F0E0C6EBF0E0D6E0D2EFED70C2EFCD76F
:10017400000000008082060E0C6E300E0D6E0D2EF7
:10018400FED70C2EFCD700008092CA4BCB2B000E5E
:0E019400CB1902E10A0ECA1901E1D4DF1200F4
:1001A200000E0001CF5D02E10A0ECE5D18E2809AD8
:1001B200310E0C6E0B0E0D6E0D2EFED70C2EFCD7D3
:1001C20000000000808A040E0C6EE40E0D6E0D2EEF
:1001D200FED70C2EFCD70000809ACE4BCF2B000E00
:0E01E200CF1902E10A0ECE19D8B4E59712002B
:1001F000000E0001CB5D02E10A0ECA5D18E280929A
:10020000310E0C6E0B0E0D6E0D2EFED70C2EFCD784
:10021000000000008082040E0C6EE40E0D6E0D2EA8
:10022000FED70C2EFCD700008092CA4BCB2B000EC1
:0E023000CB1902E10A0ECA19D8B4E49F1200DD
:10023E00000E0001D35D02E10A0ED25D18E2809835
:10024E002F0E0C6EBF0E0D6E0D2EFED70C2EFCD784
:10025E00000000008088060E0C6E300E0D6E0D2E06
:10026E00FED70C2EFCD700008098D24BD32B000E5D
:0E027E00D31902E10A0ED21901E159DF120074
:10028C00000E0001CF5D02E10A0ECE5D18E2809AED
:10029C002F0E0C6EBF0E0D6E0D2EFED70C2EFCD736
:1002AC0000000000808A060E0C6E300E0D6E0D2EB6
:1002BC00FED70C2EFCD70000809ACE4BCF2B000E15
:0E02CC00CF1902E10A0ECE1901E12CDF12005B
:1002DA00000E0001D35D02E10A0ED25D18E2809899
:1002EA00310E0C6E0B0E0D6E0D2EFED70C2EFCD79A
:1002FA00000000008088040E0C6EE40E0D6E0D2EB8
:10030A00FED70C2EFCD700008098D24BD32B000EC0
:0E031A00D31902E10A0ED219D8B4E5911200EF
:1003280010D0800E0001F26F1AD0C00EF26F17D0F5
:10033800940EF26F14D0D40EF26F11D0800EF26FBB
:100348000ED00001F251010AECE0F251020AEDE090
:10035800F251030AEDE0F251040AEDE0EFD7F3059C
:10036800006EF251002600C0F2F000C0F8F096DEF0
:10037800E49BF66BF651F425E96E000EF521EA6E62
:10038800EE520BE0F651F425E96E000EF521EA6E07
:0E039800EECFF7F0C2DEF62BEDD7E48B1200AD
:1003A60010D0800E0001F26F1AD0C00EF26F17D077
:1003B600940EF26F14D0D40EF26F11D0800EF26F3D
:1003C6000ED00001F251010AECE0F251020AEDE012
:1003D600F251030AEDE0F251040AEDE0EFD7F3051E
:1003E600006EF251002600C0F2F0E48B00C0F8F077
:0E03F60056DEE49BF4C0F8F052DEE48B1200F9
:10040400086A096A100E0C6E013408360936045065
:10041400085E0550D8A0053C095ED8B007D004504A
:1004240008260550D8B0053C0926D8900036013678
:060434000C2EEAD71200B5
:10043A00000E006E0001C951005C02E1C8510308B8
:10044A0002E2C86BC96B000EC91902E1030EC81992
:10045A000AE1C86BC96B8074D04BD12BE5BF03D0BE
:08046A00D06BD16B80941200ED
:0C0472000001E583E49FCA6BCB6B120015
:0C047E000001E48DE597CE6BCF6B1200FF
:10048A000001E4B905D0E4B303D0E4B501D01AD031
:10049A00000ED15D02E1C80ED05D02E2C9DF12D0C2
:1004AA00E4A903D0E499C66BC76BE4A303D0E49331
:1004BA00B86BB96BE4A503D0E4953E6A3F6AD06B8A
:0604CA00D16B80941200CA
:0C04D0000001E585E591D26BD36B1200B2
:1004DC000001E5B303D0E4BF01D0E599E5A303D057
:1004EC00E4BF01D031DEE5B303D0E4AF01D07ADE56
:1004FC00E5B503D0E5B101D0E59BE5A503D0E5B1A9
:10050C0001D097DEE5B503D0E5A101D0E0DEE4BD76
:10051C0003D0E5B701D0E59DE4AD03D0E5B701D03C
:0E052C00AFDEE4BD03D0E5A701D035DE12003E
:10053A00A6A202D00000FCD7A69CEFC0A9FFF0C07B
:10054A00A8FFA69EA684F2CF00F0F29E550EA76ED3
:10055A00AA0EA76EA68200BE02D0F29E01D0F28E2B
:0E056A00A694A1B802D00000FCD7A198120000
:10057800000E006E0001DD51005C02E1DC5107084D
:1005880002E2DC6BDD6B000EDD1902E1070EDC19FF
:1005980003E1DC6BDD6BEA83EAA362D0000EDF19AE
:1005A80002E1000EDE191CE1000EE31902E1010E62
:1005B800E21916E1000E006EE151005C02E1E05123
:1005C800050802E2E06BE16B000EE11902E1050E9D
:1005D800E01906E1E06BE16B020EEB27000EEC235D
:1005E800000EDF1902E1010EDE191CE1000EE3190D
:1005F80002E1010EE21916E1000E006EE151005C05
:1006080002E1E051050802E2E06BE16B000EE1193E
:1006180002E1050EE01906E1E06BE16B020EE82746
:10062800000EE923000E006EEC51005C02E1EB5174
:10063800180802E2EB6BEC6B000E006EE951005CEF
:1006480002E1E851180802E2E86BE96B000E006E5F
:10065800E751005C02E1E651180802E2E66BE76B3D
:10066800000EDF1902E1020EDE191CE1000EE3198B
:1006780002E1010EE21916E1000E006EE151005C84
:1006880002E1E051050802E2E06BE16B000EE119BE
:1006980002E1050EE01906E1E06BE16B020EE627C8
:0606A800000EE723120022
:1006AE00000E0001DF1902E1000EDE193EE10A0E16
:1006BE00046E000E056EEBC000F0ECC001F09BDE88
:1006CE0000C0F0F001C0F1F00A0E046E000E056ECF
:1006DE00EBC000F0ECC001F08EDE08C000F009C0E7
:1006EE0001F000C0EFF0020EF26F020EF36F300E4B
:1006FE00F025F46F51DE300EEF25F76F0BDDEABFFC
:10070E0009D0020EF26F050EF36F400EF46F000E5D
:10071E00F56F03DEEAAF09D0020EF26F050EF36F2E
:10072E00180EF46F000EF56FF8DD000EDF1902E102
:10073E00010EDE193EE10A0E046E000E056EE8C0D3
:10074E0000F0E9C001F057DE00C0F0F001C0F1F09A
:10075E000A0E046E000E056EE8C000F0E9C001F04E
:10076E004ADE08C000F009C001F000C0EFF0020E32
:10077E00F26F020EF36F300EF025F46F0DDE300EB9
:10078E00EF25F76FC7DCEABD09D0020EF26F050E3A
:10079E00F36F400EF46F000EF56FBFDDEAAD09D0BA
:1007AE00020EF26F050EF36F180EF46F000EF56F5A
:1007BE00B4DD000EDF1902E1020EDE193EE10A0E73
:1007CE00046E000E056EE6C000F0E7C001F013DE09
:1007DE0000C0F0F001C0F1F00A0E046E000E056EBE
:1007EE00E6C000F0E7C001F006DE08C000F009C068
:1007FE0001F000C0EFF0020EF26F020EF36F300E3A
:10080E00F025F46FC9DD300EEF25F76F83DCEDB107
:10081E0009D0020EF26F050EF36F400EF46F000E4C
:10082E00F56F7BDDEDA109D0020EF26F050EF36FB1
:0C083E00180EF46F000EF56F70DD120054
:10084A000B6A0A6A096A00500402F4CF09F0F3CF6E
:10085A0008F001500502F4CF0BF0F3CF0AF0005074
:10086A000502F3500926F4500A22E86A0B220150C5
:10087A000402F3500926F4500A22E86A0B2208C03F
:10088A0000F009C001F00AC002F00BC003F0120028
:10089A00959695949598959A959C959E839683940A
:1008AA00839E839C839A839842EC00F042EC00F08A
:1008BA0042EC00F0838A838883863FEC00F08396BB
:1008CA0042EC00F083863FEC00F0839642EC00F0A5
:1008DA0083863FEC00F0839642EC00F0839883868F
:1008EA003FEC00F0839642EC00F083863FEC00F088
:1008FA008396839A838E83863FEC00F0839642EC3C
:10090A0000F0839E838883863FEC00F08396839869
:10091A0083863FEC00F0839642EC00F083863FEC3E
:10092A0000F08396838883863FEC00F0839642EC3E
:10093A0000F0839883863FEC00F08396838E838C45
:10094A00838A838883863FEC00F0839642EC00F02A
:06095A000001E48B120015
:1009600082B002D00001EA8182A075D00001EAA124
:1009700072D0010EF86F52EC00F0EA91E5BF6BD037
:10098000E24BE32B000EE31902E1030EE21963E1EF
:10099000E26BE36B010EEF6FEBC0F0F0CEDD1A0EF1
:1009A0000C6EF80E0D6E0D2EFED70C2EFCD700002F
:1009B000030E0001EF6F000EEABF010EF06FBDDD08
:1009C0001A0E0C6EF80E0D6E0D2EFED70C2EFCD7E7
:1009D0000000020E0001EF6FE8C0F0F0AEDD1A0E6D
:1009E0000C6EF80E0D6E0D2EFED70C2EFCD70000EF
:1009F000040E0001EF6F000EEABD010EF06F9DDDE9
:100A00001A0E0C6EF80E0D6E0D2EFED70C2EFCD7A6
:100A10000000050E0001EF6FE6C0F0F08EDD1A0E4B
:100A20000C6EF80E0D6E0D2EFED70C2EFCD70000AE
:100A3000060E0001EF6F000EEDB1010EF06F7DDDCF
:100A40001A0E0C6EF80E0D6E0D2EFED70C2EFCD766
:100A500000000001EA8782B203D00001EA858CDD44
:100A600082A266D00001EAA563D0010EF86F52ECB5
:100A700000F0EA95EA93000EDF1902E1000EDE199C
:100A800019E1000EE31902E1010EE21902E1EB4B5C
:100A9000EC2B000EE31902E1020EE219D8B4EA7F52
:100AA000000E006EEC51005C02E1EB51180802E20E
:100AB000EB6BEC6B000EDF1902E1010EDE1919E1A0
:100AC000000EE31902E1010EE21902E1E84BE92B05
:100AD000000EE31902E1020EE219D8B4EA7D000E1D
:100AE000006EE951005C02E1E851180802E2E86B8F
:100AF000E96B000EDF1902E1020EDE1919E1000EAA
:100B0000E31902E1010EE21902E1E64BE72B000EC8
:100B1000E31902E1020EE219D8B4ED71000E006E85
:100B2000E751005C02E1E651180802E2E66BE76B70
:100B300082B402D00001EA8B82A471D00001EAAB3A
:100B40006ED0010EF86F52EC00F0EA9B000EDF1938
:100B500002E1000EDE191DE1000EE31902E1010EB3
:100B6000E21904E1010EEB5F000EEC5B000EE319ED
:100B700002E1020EE219D8B4EA7F000E006EEC51D9
:100B8000005C02E1EB51180804E2180EEB6F000E56
:100B9000EC6F000EDF1902E1010EDE191DE1000EFF
:100BA000E31902E1010EE21904E1010EE85F000E13
:100BB000E95B000EE31902E1020EE219D8B4EA7D06
:100BC000000E006EE951005C02E1E851180804E2F1
:100BD000180EE86F000EE96F000EDF1902E1020E39
:100BE000DE191DE1000EE31902E1010EE21904E134
:100BF000010EE65F000EE75B000EE31902E1020E54
:100C0000E219D8B4ED71000E006EE751005C02E10C
:100C1000E651180804E2180EE66F000EE76F82B87E
:100C200002D00001EA8982A82AD00001EAA927D0CF
:100C3000010EF86F52EC00F0EA99000EEC1902E197
:100C4000000EEB190AE1000EE91902E1000EE819A5
:100C500004E1E651E71101E112D0000EE31902E1CF
:100C6000000EE2190CE1E5BF06D0BE6BBF6BC06B96
:100C7000C16BC26BC36BE57FE5BF01D0E4810001AE
:100C8000EABF04D0EBC0BAF0ECC0BBF0EAAF0DD0C5
:100C9000EBC000F0ECC001F0050E046E000E056E16
:100CA000D4DD00C0BAF001C0BBF0EABD04D0E8C09A
:100CB000BCF0E9C0BDF0EAAD0DD0E8C000F0E9C07D
:100CC00001F0050E046E000E056EBFDD00C0BCF025
:100CD00001C0BDF0EDB104D0E6C0C4F0E7C0C5F07E
:100CE000EDA10DD0E6C000F0E7C001F0050E046EE6
:100CF000000E056EAADD00C0C4F001C0C5F082AAD6
:100D0000E48782AA2ED0E4A72CD0010EF86F52EC13
:100D100000F0E497000EE31902E1000EE2190AE088
:100D2000DE4BDF2B000EDF1902E1030EDE1902E1BC
:100D3000DE6BDF6BE4B905D0E4B303D0E4B501D0DA
:100D400010D0E4A902D0C66BC76BE4A302D0B86B85
:100D5000B96BE4A502D03E6A3F6AE499E493E49556
:040D60008094120069
:100D64000900F5CFE6FF0006FBE10106F9E11200F8
:100D7400A69CEEC0A9FFA69EA680A8CF00F01200F4
:100D84000001E5BF6DD0000EE31902E1000EE21987
:100D940067E1EAB717D0E4B115D0010EF26F010E86
:100DA400F36F1C0EF46F000EF56F94EC01F0020E5D
:100DB400F26F010EF36F2D0EF46F000EF56F94ECCD
:100DC40001F04ED0EAA725D0E4B123D0EA97010E72
:100DD400F26F010EF36F440EF46F000EF56F94EC96
:100DE40001F0020EF26F010EF36F850EF46F000E28
:100DF400F56F94EC01F00B0E0B6E260E0C6E5D0E6F
:100E04000D6E0D2EFED70C2EFCD70B2EFAD700003C
:100E14000000EAB725D0E4A123D0E491010EF26FDB
:100E2400010EF36F960EF46F000EF56F94EC01F063
:100E3400020EF26F010EF36FA70EF46F000EF56F42
:100E440094EC01F00B0E0B6E260E0C6E5D0E0D6E07
:100E54000D2EFED70C2EFCD70B2EFAD70000000067
:100E6400000EE31902E1010EE21935E1010EF26F01
:100E7400010EF36F550EF46F000EF56F94EC01F054
:100E840014DC000EDF1902E1000EDE1908E1020E87
:100E9400F26F0E0EF36F310EF46FD3EC01F0000E0F
:100EA400DF1902E1010EDE1908E1020EF26F0E0EE7
:100EB400F36F320EF46FD3EC01F0000EDF1902E190
:100EC400020EDE1908E1020EF26F0E0EF36F330EFE
:100ED400F46FD3EC01F0000EE31902E1020EE21903
:100EE40036E1010EF26F010EF36F660EF46F000E21
:100EF400F56F94EC01F057EC03F0000EDF1902E1FA
:100F0400000EDE1908E1020EF26F0E0EF36F310EC1
:100F1400F46FD3EC01F0000EDF1902E1010EDE19CB
:100F240008E1020EF26F0E0EF36F320EF46FD3EC83
:100F340001F0000EDF1902E1020EDE1908E1020ED3
:100F4400F26F0E0EF36F330EF46FD3EC01F0E5AFD6
:100F540052D0010EF26F010EF36F740EF46F000E97
:100F6400F56F94EC01F0000E006EDB51005C02E1C1
:100F7400DA51140802E2DA6BDB6B000EDB1902E1D2
:100F8400140EDA1936E1DA6BDB6BDE4BDF2B000E65
:100F9400DF1902E1030EDE1902E1DE6BDF6B000EE6
:100FA400DF1902E1000EDE1908E1020EF26F0E0EE7
:100FB400F36F310EF46FD3EC01F0000EDF1902E190
:100FC400010EDE1908E1020EF26F0E0EF36F320EFF
:100FD400F46FD3EC01F0000EDF1902E1020EDE190A
:100FE40008E1020EF26F0E0EF36F330EF46FD3ECC2
:080FF40001F057EC03F01200BC
:100FFC000001E5BF02D0B86BB96BE5AF21D0000E94
:10100C00E91902E1000EE8191BE0000EC11902E11A
:10101C000A0EC01904E1C06BC16BB84BB92BB951A6
:10102C00BD1902E1BC51B81904E1E483E58B68EC0D
:10103C0002F0E5AB03D06EEC02F002D045EC02F00E
:02104C00120090
:10104E000001E5BF02D03E6A3F6AE5AF21D0000E37
:10105E00E71902E1000EE6191BE0000EC31902E1CA
:10106E000A0EC21904E1C26BC36B3E4A3F2A3F50BF
:10107E00C51902E1C4513E1804E1E485E58D3FEC4B
:10108E0002F0E5AD03D06EEC02F002D045EC02F0BA
:02109E0012003E
:1010A0000001E5BF02D0C66BC76BE5AF21D0000ED3
:1010B000EC1902E1000EEB191BE0000EBF1902E172
:1010C0000A0EBE1904E1BE6BBF6BC64BC72BC751DE
:1010D000BB1902E1BA51C61904E1E489E58939EC8A
:1010E00002F0E5A903D06EEC02F002D045EC02F06C
:0210F0001200EC
:1010F2000001E5AF12D0E4B910D0000EEC1902E104
:10110200000EEB190AE0000ECD5D02E10A0ECC5D85
:1011120003E3CC6BCD6B80701FD0E5AF0CD0E4A99C
:101122000AD0000ECD5D02E1020ECC5D03E3CC6B72
:10113200CD6B807011D0000E006EE351005C02E1B5
:10114200E251000808E2000EDF1902E1000EDE198A
:1011520002E1808001D08090000ED51902E1050ED7
:10116200D41903E1D46BD56B8076E5AF12D0E4B32A
:1011720010D0000EE91902E1000EE8190AE0000E93
:10118200D75D02E10A0ED65D03E3D66BD76B8170A1
:101192001FD0E5AF0CD0E4A30AD0000ED75D02E168
:1011A200020ED65D03E3D66BD76B817011D0000EB1
:1011B200006EE351005C02E1E251000808E2000E19
:1011C200DF1902E1010EDE1902E1818001D0819076
:1011D200E5AF12D0E4B510D0000EE71902E1000E1F
:1011E200E6190AE0000ED95D02E10A0ED85D03E3BA
:1011F200D86BD96B81721FD0E5AF0CD0E4A50AD0B1
:10120200000ED95D02E1020ED85D03E3D86BD96B03
:10121200817211D0000E006EE351005C02E1E251D6
:10122200000808E2000EDF1902E1020EDE1902E1F7
:08123200818201D081921200BB
:10123A00F3EC09F00F0EC16E070EB46E3C0ED76EBA
:10124A00B00ED66E3C0ECF6EB00ECE6EF28EF28C13
:10125A00F28AF2949E90F18E810ED56EA10ECD6E19
:10126A000001E59FEA91EA95EA9BEA99E497EA97F1
:10127A00EA93E499E493E495E593E595E49DE49F84
:10128A00E591E597E599E59BE59D80928098809A9E
:10129A00010EEE6F6ADD00C0EBF0000EEC6F030E7C
:1012AA00EE6F63DD00B002D0EA9F01D0EA8F020E32
:1012BA00EE6F5BDD00C0E8F0000EE96F040EEE6F22
:1012CA0054DD00B002D0EA9D01D0EA8D050EEE6F22
:1012DA004CDD00C0E6F0000EE76F060EEE6F45DD4E
:1012EA0000B002D0ED9101D0ED81926A3F0E946E6A
:1012FA00936A4DEC04F0010EF86F52EC00F00C0EFC
:10130A00F86F52EC00F0B0EC04F037DDFCD7FFD7F1
:1013E60010EE18F0CC0E006E010E016E1A0EF66E9F
:0E13F600130EF76E000EF86EB2EC06F0120049
:04131A0064696100A1
:10131E00202044495350454E5345522044452020E9
:01132E0000BE
:10132F002020202052454D4544494F532020202056
:01133F0000AD
:021340000000AB
:0413420068202000FF
:1013460045544543204C4155524F20474F4D455338
:011356000096
:1013570050524F4752414D45204E554D45524F3AF9
:011367000085
:0E13680050524F4752414D4520556E2E3A00CF
:10137600434F4E54414E444F3A2020204449535047
:011386000066
:1013870020203341204D4543412032303231202047
:011397000055
:101398002020202020504152414E444F2020202020
:0113A8000044
:1013A9002020202020434F4E544147454D202020E6
:0113B9000033
:0213BA00000031
:0213BC0000002F
:0213BE0000002D
:0213C00000002B
:0213C200000029
:0213C400000027
:0213C600000025
:0213C800000023
:0213CA00000021
:0213CC0000001F
:0213CE0000001D
:0213D00000001B
:0213D200000019
:0213D400000017
:0213D600000015
:0213D800000013
:0213DA00000011
:0213DC0000000F
:0213DE0000000D
:0213E00000000B
:0213E200000009
:0213E400000007
:020000040030CA
:0E000000000C1F1EFF8381FF0FC00FE00F409A
:00000001FF
