:0400000098EF0DF078
:1000080000C018F00BC017F00CC016F00DC015F0AA
:10001800F2A425D0F294ED0ED76EB10ED66E000183
:10002800DC4BDD2BDE4BDF2BE04BE12BD64BD72B0C
:10003800EE4BEF2BF84BF92BF64BF72BF44BF52B3C
:10004800EA4BEB2B3B4A3C2AF24BF32B0101084BC2
:10005800092B0001E84BE92B0101044B052B7BEC34
:100068000CF066EC0DF049EC0CF017EC0CF0E5EC3C
:100078000BF018C000F017C00BF016C00CF015C03C
:040088000DF0110066
:0E008C00030E0D6E0D2EFED7000000001200B8
:10009A00560E0C6EB50E0D6E0D2EFED70C2EFCD71D
:0600AA000000000012003E
:0E00B000C70E0D6E0D2EFED7000000001200D0
:1000BE0001012ABF02D0839E01D0838E2ABD02D0B9
:1000CE00839C01D0838C2ABB02D0839A01D0838A71
:1000DE002AB902D0839801D083880CB502D08384CC
:1000EE0001D083948386CBDF83962AB702D0839E7A
:1000FE0001D0838E2AB502D0839C01D0838C2AB383
:10010E0002D0839A01D0838A2AB102D0839801D07B
:10011E0083880CB502D0838401D083948386AFDFAD
:0E012E0083960CA502D0B2DF01D0BBDF120019
:0E013C0001010B830B950001F06BF16B1200BB
:0E014A0001010B930B850001F06BF16B1200AD
:0E01580001010C9529C12AF1AEDF0C851200C1
:0E01660001010B810A950001EC6BED6B12009C
:0E01740001010A8F0A9B0001E46BE56B12008B
:0E01820001010A9F0A8B0001E46BE56B12007D
:0E01900001010B870C990001E66BE76B120072
:0E019E0001010B970C890001E66BE76B120064
:0E01AC0001010B910A850001EC6BED6B120056
:1001BA00000E421802E1000E41182CE0000E000168
:1001CA00ED5D02E1140EEC5D1DE28192020E0B6EF2
:1001DA00190E0C6E810E0D6E0D2EFED70C2EFCD74D
:1001EA000B2EFAD7000000008182200E0C6E290E19
:1001FA000D6E0D2EFED70C2EFCD70000000081924A
:10020A00EC4BED2B000EED1902E1140EEC1901E195
:0C021A00C8DF03D001010B910A9512000F
:10022600000E3E1802E1000E3D182CE0000E000103
:10023600E75D02E1140EE65D1DE28194020E0B6E8F
:10024600190E0C6E810E0D6E0D2EFED70C2EFCD7E0
:100256000B2EFAD7000000008184200E0C6E290EAA
:100266000D6E0D2EFED70C2EFCD7000000008194DB
:10027600E64BE72B000EE71902E1140EE61901E141
:0C0286008BDF03D001010B970C991200D4
:10029200000E3E1802E1000E3D182CE0000E000197
:1002A200E75D02E1140EE65D1AE28194020E0B6E26
:1002B200210E0C6E4C0E0D6E0D2EFED70C2EFCD7A1
:1002C2000B2EFAD700008184180E0C6E5F0E0D6E95
:1002D2000D2EFED70C2EFCD78194E64BE72B000E99
:1002E200E71902E1140EE61905E151DF010E3D5E48
:0602F200000E3E5A12004E
:1002F800000E441802E1000E43182CE0000E000125
:10030800E55D02E1140EE45D1DE28196020E0B6EBE
:10031800190E0C6E810E0D6E0D2EFED70C2EFCD70D
:100328000B2EFAD7000000008186200E0C6E290ED5
:100338000D6E0D2EFED70C2EFCD700000000819606
:10034800E44BE52B000EE51902E1140EE41901E176
:0C03580014DF03D001010A9F0A9B120071
:10036400000E441802E1000E43182CE0000E0001B8
:10037400E55D02E1140EE45D1AE28196020E0B6E55
:10038400210E0C6E4C0E0D6E0D2EFED70C2EFCD7CE
:100394000B2EFAD700008186180E0C6E5F0E0D6EC0
:1003A4000D2EFED70C2EFCD78196E44BE52B000EC8
:1003B400E51902E1140EE41905E1DADE010E435EEB
:0603C400000E445A120075
:1003CA00000E401802E1000E3F182CE0000E00015A
:1003DA00F15D02E1140EF05D1AE28190020E0B6EDD
:1003EA00210E0C6E4C0E0D6E0D2EFED70C2EFCD768
:1003FA000B2EFAD700008180180E0C6E5F0E0D6E60
:10040A000D2EFED70C2EFCD78190F04BF12B000E4F
:10041A00F11902E1140EF01905E18BDE010E3F5EBF
:06042A00000E405A120012
:10043000000E421802E1000E41182CE0000E0001EF
:10044000ED5D02E1140EEC5D1AE28192020E0B6E7C
:10045000210E0C6E4C0E0D6E0D2EFED70C2EFCD701
:100460000B2EFAD700008182180E0C6E5F0E0D6EF7
:100470000D2EFED70C2EFCD78192EC4BED2B000EEF
:10048000ED1902E1140EEC1905E16DDE010E415E7D
:06049000000E425A1200AA
:10049600000E401802E1000E3F182CE0000E00018D
:1004A600F15D02E1140EF05D1DE28190020E0B6E0D
:1004B600190E0C6E810E0D6E0D2EFED70C2EFCD76E
:1004C6000B2EFAD7000000008180200E0C6E290E3C
:1004D6000D6E0D2EFED70C2EFCD70000000081906D
:1004E600F04BF12B000EF11902E1140EF01901E1A7
:0C04F60029DE03D001010B930B951200CE
:10050200000E006E0001F351005C02E1F25103089B
:1005120002E2F26BF36B000EF31902E1030EF21921
:100522000CE1F26BF36B8178E24BE32B01010DBB23
:0C05320004D00001E26BE36B8198120022
:10053E0010D0800E0101246F1AD0C00E246F17D078
:10054E00940E246F14D0D40E246F11D0800E246F0D
:10055E000ED001012451010AECE02451020AEDE013
:10056E002451030AEDE02451040AEDE0EFD72505EE
:10057E00006E2451002600C024F100C02AF198DD3F
:10058E000C95286B28512625E96E000E2721EA6E60
:10059E00EE520BE028512625E96E000E2721EA6E59
:0E05AE00EECF29F1D2DD282BEDD70C851200FF
:1005BC0010D0800E0101246F1AD0C00E246F17D0FA
:1005CC00940E246F14D0D40E246F11D0800E246F8F
:1005DC000ED001012451010AECE02451020AEDE095
:1005EC002451030AEDE02451040AEDE0EFD7250570
:1005FC00006E2451002600C024F10C8500C02AF1A5
:0E060C0058DD0C9526C12AF154DD0C85120034
:10061A00086A096A100E0C6E01340836093604504D
:10062A00085E0550D8A0053C095ED8B007D0045032
:10063A0008260550D8B0053C0926D8900036013660
:06064A000C2EEAD712009D
:10065000000E006E0001E951005C02E1E8510F0854
:1006600002E2E86BE96B000EE91902E10F0EE819EE
:0E06700005E18274E86BE96B01010D8912004F
:10067E00000E0101071902E1000E06193EE10A0EF5
:10068E00046E000E056E18C100F019C101F0BEDF38
:10069E0000C022F101C023F10A0E046E000E056E99
:1006AE0018C100F019C101F0B1DF08C000F009C097
:1006BE0001F000C021F1020E246F070E256F300EDF
:1006CE002225266F74DF300E2125296F3EDD0DB1F8
:1006DE0009D0020E246F0A0E256FFE0E266F000E35
:1006EE00276F26DF0DA109D0020E246F0A0E256F8B
:1006FE00FA0E266F000E276F1BDF000E071902E1A0
:10070E00010E06193EE10A0E046E000E056E1CC1A6
:10071E0000F01DC101F07ADF00C022F101C023F10B
:10072E000A0E046E000E056E1CC100F01DC101F014
:10073E006DDF08C000F009C001F000C021F1020E0B
:10074E00246F070E256F300E2225266F30DF300EF8
:10075E002125296FFADC0DB309D0020E246F0A0E83
:10076E00256FFE0E266F000E276FE2DE0DA309D059
:10077E00020E246F0A0E256FFA0E266F000E276FDB
:10078E00D7DE000E071902E1020E06193EE10A0E2F
:10079E00046E000E056E1EC100F01FC101F036DFA3
:1007AE0000C022F101C023F10A0E046E000E056E88
:1007BE001EC100F01FC101F029DF08C000F009C002
:1007CE0001F000C021F1020E246F070E256F300ECE
:1007DE002225266FECDE300E2125296FB6DC0DB7F3
:1007EE0009D0020E246F0A0E256FFE0E266F000E24
:1007FE00276F9EDE0DA709D0020E246F0A0E256FFD
:10080E00FA0E266F000E276F93DE000E071902E117
:10081E00030E06193EE10A0E046E000E056E10C19F
:10082E0000F011C101F0F2DE00C022F101C023F18F
:10083E000A0E046E000E056E10C100F011C101F01B
:10084E00E5DE08C000F009C001F000C021F1020E83
:10085E00246F070E256F300E2225266FA8DE300E70
:10086E002125296F72DC0DB509D0020E246F0A0EF8
:10087E00256FFE0E266F000E276F5ADE0DA509D0CE
:10088E00020E246F0A0E256FFA0E266F000E276FCA
:10089E004FDE000E071902E1000E061908E1020EE6
:1008AE00246F0F0E256F300E0E25266F80DE000E84
:1008BE00071902E1010E061908E1020E246F0F0E50
:1008CE00256F300E1425266F72DE000E071902E119
:1008DE00020E061908E1020E246F0F0E256F300E60
:1008EE001225266F64DE000E071902E1030E0619AB
:1008FE0008E1020E246F0F0E256F300E1625266F9F
:04090E0056DE12009F
:100912000B6A0A6A096A00500402F4CF09F0F3CFA5
:1009220008F001500502F4CF0BF0F3CF0AF00050AB
:100932000502F3500926F4500A22E86A0B220150FC
:100942000402F3500926F4500A22E86A0B2208C076
:1009520000F009C001F00AC002F00BC003F012005F
:10096200000E006E01010951005C02E10851070806
:1009720002E2086B096B000E091902E1070E081961
:1009820006E1086B096B010E1A6F000E1B6F1A51FC
:100992001B11D8B4B0D0000E071902E1000E0619DF
:1009A2001CE1000E031902E1010E021916E1000E0C
:1009B200006E0551005C02E10451050802E2046B7D
:1009C200056B000E051902E1050E041906E1046B20
:1009D200056B020E1827000E1923000E071902E1FB
:1009E200010E06191CE1000E031902E1010E0219A3
:1009F20016E1000E006E0551005C02E1045105088B
:100A020002E2046B056B000E051902E1050E0419E2
:100A120006E1046B056B020E1C27000E1D23000E5F
:100A2200071902E1020E06191CE1000E031902E188
:100A3200010E021916E1000E006E0551005C02E182
:100A42000451050802E2046B056B000E051902E170
:100A5200050E041906E1046B056B020E1E27000E3B
:100A62001F23000E071902E1030E06191CE1000EF6
:100A7200031902E1010E021916E1000E006E055182
:100A8200005C02E10451050802E2046B056B000EF2
:100A9200051902E1050E041906E1046B056B020E4D
:100AA2001027000E1123000E006E1951005C02E1A6
:100AB2001851180802E2186B196B000E006E1D51D6
:100AC200005C02E11C51180802E21C6B1D6B000E57
:100AD200006E1F51005C02E11E51180802E21E6BFB
:100AE2001F6B000E006E1151005C02E110511808DC
:080AF20002E2106B116B12000F
:100AFA0001010BB303D00BB501D00C9F0BA303D09C
:100B0A000BB501D0C3DC01010BB303D00BA501D097
:100B1A0057DC01010BB103D00AB501D00C9D0BA122
:100B2A0004D00AB502D0DDEC00F001010BB103D00C
:100B3A000AA501D078DC01010ABF03D00ABB01D0A3
:100B4A000C9B0AAF04D00ABB02D07CEC01F0010175
:100B5A000ABF03D00AAB01D000DC01010BB703D0F6
:100B6A000CB901D00C970BA704D00CB902D013EC26
:100B7A0001F001010BB704D00CA902D049EC01F035
:020B8A00120057
:100B8C00A6A202D00000FCD7A69C21C1A9FF22C1BD
:100B9C00A8FFA69EA684F2CF00F0F29E550EA76E7B
:100BAC00AA0EA76EA68200BE02D0F29E01D0F28ED3
:0E0BBC00A694A1B802D00000FCD7A1981200A8
:100BCA0001010BB907D00BBB05D00BBD03D00CB389
:100BDA0001D029D0000E0001E35D02E1C80EE25DFA
:100BEA0002E28ADC20D001010BA904D00B99000192
:100BFA00CA6BCB6B01010BAB04D00B9B0001CC6B16
:100C0A00CD6B01010BAD04D00B9D0001CE6BCF6BF8
:100C1A0001010CA304D00C930001D26BD36B000129
:080C2A00E26BE36B81981200FC
:100C320082B002D001010A8182A0C7D001010AA1BB
:100C4200C4D0010E2A6F5FEC00F00A9182840DBBC2
:100C5200BCD0024B032B000E031902E1040E021951
:100C6200D8A4B3D0026B036B010E216F18C122F11D
:100C72008CDF9C0E0C6ED70E0D6E0D2EFED70C2E39
:100C8200FCD7030E0101216F000E0DB1010E226F80
:100C92007CDF9C0E0C6ED70E0D6E0D2EFED70C2E29
:100CA200FCD7020E0101216F1CC122F16EDF9C0EE6
:100CB2000C6ED70E0D6E0D2EFED70C2EFCD7040E29
:100CC2000101216F000E0DB3010E226F5EDF9C0E3B
:100CD2000C6ED70E0D6E0D2EFED70C2EFCD7050E08
:100CE2000101216F1EC122F150DF9C0E0C6ED70E46
:100CF2000D6E0D2EFED70C2EFCD7060E0101216FB4
:100D0200000E0DB7010E226F40DF9C0E0C6ED70E47
:100D12000D6E0D2EFED70C2EFCD7070E0101216F92
:100D220010C122F132DF9C0E0C6ED70E0D6E0D2E0D
:100D3200FED70C2EFCD7080E0101216F000E0DB557
:100D4200010E226F22DF9C0E0C6ED70E0D6E0D2E41
:100D5200FED70C2EFCD7090E0101216F0EC122F124
:100D620014DF9C0E0C6ED70E0D6E0D2EFED70C2EC0
:100D7200FCD70A0E0101216F14C122F106DF9C0E7D
:100D82000C6ED70E0D6E0D2EFED70C2EFCD70B0E51
:100D92000101216F12C122F1F8DE9C0E0C6ED70EFA
:100DA2000D6E0D2EFED70C2EFCD70C0E0101216FFD
:100DB20016C122F1EADE9C0E0C6ED70E0D6E0D2EC0
:100DC200FED70C2EFCD701010A8782B203D00101A3
:100DD2000A83C6DD82A2E7D001010AA3E4D0010E94
:100DE2002A6F5FEC00F00A931A6B1B6B8284000E71
:100DF200071902E1000E06192DE1000E031902E1A6
:100E0200010E021902E1184B192B000E031902E11F
:100E1200020E0219D8B40D71000E031902E1030E7D
:100E2200021902E10E4B0F2B000E006E0F51005CF7
:100E320002E10E51040804E2010E0E6F000E0F6F64
:100E4200000E006E1951005C02E11851180802E20E
:100E5200186B196B000E071902E1010E06192DE13C
:100E6200000E031902E1010E021902E11C4B1D2BB7
:100E7200000E031902E1020E0219D8B40D73000E1E
:100E8200031902E1030E021902E1144B152B000EA5
:100E9200006E1551005C02E11451040804E2010ED7
:100EA200146F000E156F000E006E1D51005C02E102
:100EB2001C51180802E21C6B1D6B000E071902E19F
:100EC200020E06192DE1000E031902E1010E0219AC
:100ED20002E11E4B1F2B000E031902E1020E021942
:100EE200D8B40D77000E031902E1030E021902E1D4
:100EF200124B132B000E006E1351005C02E11251D3
:100F0200040804E2010E126F000E136F000E006E51
:100F12001F51005C02E11E51180802E21E6B1F6B9A
:100F2200000E071902E1030E06192DE1000E031946
:100F320002E1010E021902E1104B112B000E0319FE
:100F420002E1020E0219D8B40D75000E031902E176
:100F5200030E021902E1164B172B000E006E1751F9
:100F6200005C02E11651040804E2010E166F000E45
:100F7200176F000E006E1151005C02E1105118084B
:100F820002E2106B116B0EC13FF00FC140F014C1B1
:100F920041F015C142F012C143F013C144F016C131
:100FA2003DF017C13EF080BA02D001010B8F80AA3A
:100FB200F5D001010BAFF2D0010E2A6F5FEC00F009
:100FC2000B9F8284000E071902E1000E061931E11F
:100FD200000E031902E1010E021904E1010E185F6D
:100FE200000E195B000E031902E1020E0219D8B4B9
:100FF2000D71000E031902E1030E021904E1010E44
:101002000E5F000E0F5B000E0F5D02E1010E0E5D22
:1010120004E2040E0E6F000E0F6F000E006E1951E7
:10102200005C02E11851180804E2180E186F000E55
:10103200196F000E071902E1010E061931E1000EC7
:10104200031902E1010E021904E1010E1C5F000EF8
:101052001D5B000E031902E1020E0219D8B40D73D2
:10106200000E031902E1030E021904E1010E145FDE
:10107200000E155B000E155D02E1010E145D04E227
:10108200040E146F000E156F000E006E1D51005CF1
:1010920002E11C51180804E2180E1C6F000E1D6FAD
:1010A200000E071902E1020E061931E1000E0319C2
:1010B20002E1010E021904E1010E1E5F000E1F5B28
:1010C200000E031902E1020E0219D8B40D77000EC8
:1010D200031902E1030E021904E1010E125F000E70
:1010E200135B000E135D02E1010E125D04E2040EB9
:1010F200126F000E136F000E006E1F51005C02E1B2
:101102001E51180804E2180E1E6F000E1F6F000E0B
:10111200071902E1030E061931E1000E031902E17B
:10112200010E021904E1010E105F000E115B000EA8
:10113200031902E1020E0219D8B40D75000E03194B
:1011420002E1030E021904E1010E165F000E175BA5
:10115200000E175D02E1010E165D04E2040E166F29
:10116200000E176F000E006E1151005C02E110516B
:10117200180804E2180E106F000E116F0EC13FF036
:101182000FC140F014C141F015C142F012C143F049
:1011920013C144F016C13DF017C13EF082BC02D02B
:1011A20001010C8182AC3FD001010CA13CD0010EA7
:1011B2002A6F5FEC00F00C91000E191902E1000E8B
:1011C200181913E1000E1D1902E1000E1C190DE1A0
:1011D200000E1F1902E1000E1E1907E1000E11197F
:1011E20002E1000E101901E11ED0000E031902E106
:1011F200000E021918E10BB916D00BBB14D00BBDAF
:1012020012D00CB310D00DBB09D00001DC6BDD6B2A
:10121200DE6BDF6BE06BE16BD66BD76B01010D7B95
:101222000DBB01D00A8901010DB104D018C1D8F05B
:1012320019C1D9F00DA10ED018C100F019C101F0E9
:10124200050E046E000E056E89EC04F000C0D8F0A5
:1012520001C0D9F00DB304D01CC1DAF01DC1DBF01E
:101262000DA30ED01CC100F01DC101F0050E046ECD
:10127200000E056E89EC04F000C0DAF001C0DBF06C
:101282000DB704D01EC1D4F01FC1D5F00DA70ED0EA
:101292001EC100F01FC101F0050E046E000E056EA6
:1012A20089EC04F000C0D4F001C0D5F00DB504D033
:1012B20010C1D0F011C1D1F00DA50ED010C100F0B7
:1012C20011C101F0050E046E000E056E89EC04F0EA
:1012D20000C0D0F001C0D1F082BE03D00A8D28EC4C
:1012E20003F082AE44D001010AAD41D0010E2A6F53
:1012F2005FEC00F00A9D0DB910D0000E031902E157
:10130200000E02190AE0064B072B000E071902E134
:10131200040E061902E1066B076B0BB907D00BBB73
:1013220005D00BBD03D00CB301D01DD00BA903D047
:101332000001CA6BCB6B01010BAB03D00001CC6B7C
:10134200CD6B01010BAD03D00001CE6BCF6B010160
:101352000CA303D00001D26BD36B01010B990B9B41
:101362000B9D0C9381980D990001E86BE96B1200BB
:1013720001010DBB75D0000E031902E1000E021926
:101382006FE181B0819081B2819281B6819681B400
:1013920081940AB717D00AB915D0010E246F010E35
:1013A200256F530E266F000E276F9FEC02F0020E80
:1013B200246F010E256F970E266F000E276F9FEC8C
:1013C20002F04ED00AA725D00AB923D00A97010EFF
:1013D200246F010E256FA80E266F000E276F9FEC5B
:1013E20002F0020E246F010E256FB90E266F000E59
:1013F200276F9FEC02F03D0E0B6EE10E0C6E3F0E5E
:101402000D6E0D2EFED70C2EFCD70B2EFAD7000038
:1014120000000AB725D00AA923D00A99010E246F29
:10142200010E256F640E266F000E276F9FEC02F0EF
:10143200020E246F010E256F750E266F000E276FA8
:101442009FEC02F03D0E0B6EE10E0C6E3F0E0D6E28
:101452000D2EFED70C2EFCD70B2EFAD70000000063
:10146200000E031902E1010E021944E1010E246F7C
:10147200010E256F860E266F000E276F9FEC02F07D
:101482003FEC03F0000E071902E1000E061908E115
:10149200020E246F010E256F310E266FDEEC02F074
:1014A200000E071902E1010E061908E1020E246F6F
:1014B200010E256F320E266FDEEC02F0000E0719C8
:1014C20002E1020E061908E1020E246F010E256FD9
:1014D200330E266FDEEC02F0000E071902E1030E56
:1014E200061908E1020E246F010E256F340E266FD5
:1014F200DEEC02F0000E031902E1020E021944E1D1
:10150200010E246F010E256F450E266F000E276F08
:101512009FEC02F03FEC03F0000E071902E1000E0F
:10152200061908E1020E246F010E256F310E266F97
:10153200DEEC02F0000E071902E1010E061908E1C5
:10154200020E246F010E256F320E266FDEEC02F0C2
:10155200000E071902E1020E061908E1020E246FBD
:10156200010E256F330E266FDEEC02F0000E071916
:1015720002E1030E061908E1020E246F010E256F27
:10158200340E266FDEEC02F0000E031902E1030EA8
:10159200021944E1010E246F010E256F190E266F08
:1015A200000E276F9FEC02F03FEC03F0000E0719CC
:1015B20002E1000E061908E1020E246F010E256FEA
:1015C200310E266FDEEC02F0000E071902E1010E69
:1015D200061908E1020E246F010E256F320E266FE6
:1015E200DEEC02F0000E071902E1020E061908E114
:1015F200020E246F010E256F330E266FDEEC02F011
:10160200000E071902E1030E061908E1020E246F0B
:10161200010E256F340E266FDEEC02F00DAB60D0AA
:10162200010E246F010E256F2A0E266F000E276F02
:101632009FEC02F0000E006E3C50005C02E13B5059
:10164200140802E23B6A3C6A000E3C1802E1140EE6
:101652003B1844E13B6A3C6A064B072B000E071914
:1016620002E1040E061902E1066B076B000E071970
:1016720002E1000E061908E1020E246F010E256F29
:10168200310E266FDEEC02F0000E071902E1010EA8
:10169200061908E1020E246F010E256F320E266F25
:1016A200DEEC02F0000E071902E1020E061908E153
:1016B200020E246F010E256F330E266FDEEC02F050
:1016C200000E071902E1030E061908E1020E246F4B
:1016D200010E256F340E266FDEEC02F03FEC03F0B4
:0216E2001200F4
:1016E400959695949598959A959C959E83968394B2
:1016F400839E839C839A83984DEC00F04DEC00F01C
:101704004DEC00F0838A8388838646EC00F0839650
:101714004DEC00F0838646EC00F083964DEC00F02F
:10172400838646EC00F083964DEC00F08398838624
:1017340046EC00F083964DEC00F0838646EC00F016
:101744008396839A838E838646EC00F083964DECD1
:1017540000F0839E8388838646EC00F0839683980A
:10176400838646EC00F083964DEC00F0838646ECCD
:1017740000F083968388838646EC00F083964DECD4
:1017840000F08398838646EC00F08396838E838CE6
:10179400838A8388838646EC00F083964DEC00F0C0
:0617A40001010C8512009A
:1017AA000900F5CFE6FF0006FBE10106F9E11200A8
:1017BA00A69C20C1A9FFA69EA680A8CF00F0120071
:1017CA0001010DBB03D00001D26BD36B01010DAB3C
:1017DA0028D0000E111902E1000E101922E0000EA5
:1017EA000001D71902E10A0ED61904E1D66BD76BAC
:1017FA00D24BD32BD351D11902E1D051D21909E1DD
:10180A0001010C830C8716C13DF017C13EF0C8ECEC
:10181A0000F001010CA703D07DEC05F002D0E5EC45
:04182A0005F01200B3
:10182E0001010DBB03D00001CE6BCF6B01010DABDF
:10183E0028D0000E1F1902E1000E1E1922E0000E24
:10184E000001E11902E10A0EE01904E1E06BE16B1F
:10185E00CE4BCF2BCF51D51902E1D451CE1909E180
:10186E0001010B8D0C8B12C143F013C144F0BAEC85
:10187E0000F001010CAB03D07DEC05F002D0E5ECDD
:04188E0005F012004F
:1018920001010DBB03D00001CC6BCD6B01010DAB7F
:1018A20028D0000E1D1902E1000E1C1922E0000EC4
:1018B2000001DF1902E10A0EDE1904E1DE6BDF6BC3
:1018C200CC4BCD2BCD51DB1902E1DA51CC1909E118
:1018D20001010B8B0C8D14C141F015C142F0B3EC28
:1018E20000F001010CAD03D07DEC05F002D0E5EC77
:0418F20005F01200EB
:1018F60001010DAB13D00BB911D0000E191902E17D
:10190600000E18190BE0000E0001EF5D02E10A0E51
:10191600EE5D03E3EE6BEF6B807622D001010DAB3B
:101926000DD00BA90BD0000E0001EF5D02E1020EF7
:10193600EE5D03E3EE6BEF6B807612D0000E006E69
:1019460001010351005C02E10251000808E2000EA9
:10195600071902E1000E061902E1808601D0809681
:10196600000E0001F91902E1050EF81903E1F86B02
:10197600F96B807001010DAB13D00BBB11D0000EBB
:101986001D1902E1000E1C190BE0000E0001F75DA7
:1019960002E10A0EF65D03E3F66BF76B807222D066
:1019A60001010DAB0DD00BAB0BD0000E0001F75DA6
:1019B60002E1020EF65D03E3F66BF76B807212D05E
:1019C600000E006E01010351005C02E102510008A5
:1019D60008E2000E071902E1010E061902E18082F3
:1019E60001D0809201010DAB13D00BBD11D0000EBA
:1019F6001F1902E1000E1E190BE0000E0001F55D35
:101A060002E10A0EF45D03E3F46BF56B807422D0F9
:101A160001010DAB0DD00BAD0BD0000E0001F55D35
:101A260002E1020EF45D03E3F46BF56B807412D0F1
:101A3600000E006E01010351005C02E10251000834
:101A460008E2000E071902E1020E061902E180847F
:101A560001D0809401010DAB13D00CB311D0000E50
:101A6600111902E1000E10190BE0000E0001EB5DEA
:101A760002E10A0EEA5D03E3EA6BEB6B807822D0A3
:101A860001010DAB0DD00CA30BD0000E0001EB5DD8
:101A960002E1020EEA5D03E3EA6BEB6B807812D09B
:101AA600000E006E01010351005C02E102510008C4
:101AB60008E2000E071902E1030E061902E180880A
:061AC60001D0809812001F
:101ACC0001010DBB03D00001CA6BCB6B01010DAB47
:101ADC0028D0000E191902E1000E181922E0000E90
:101AEC000001DD1902E10A0EDC1904E1DC6BDD6B8F
:101AFC00CA4BCB2BCB51D91902E1D851CA1909E1E8
:101B0C0001010B890C8F0EC13FF00FC140F09EEC10
:101B1C0000F001010CAF03D07DEC05F002D0E5EC38
:041B2C0005F01200AE
:101B3000D7EC0EF00F0EC16E070EB46EED0ED76E21
:101B4000B10ED66EF28EF28CF28AF294F18E870E7E
:101B5000D56E01010D9B0D990A910A930B9F0C9173
:101B60000A9D0A971A6B1B6B0B990B9B0B9D0C9391
:101B70000B930B910A9F0B970B950A950A9B0C9957
:101B80000C9F0C9D0C9B0C97819081928196819467
:101B900080908284010E206F10DE00C018F1000ECC
:101BA000196F030E206F09DE00B002D00D9101D035
:101BB0000D81020E206F01DE00C01CF1000E1D6FB2
:101BC000040E206FFADD00B002D00D9301D00D831A
:101BD000050E206FF2DD00C01EF1000E1F6F060E15
:101BE000206FEBDD00B002D00D9701D00D87070EFE
:101BF000206FE3DD00C010F1000E116F080E206FA2
:101C0000DCDD00B002D00D9501D00D85090E206FEE
:101C1000D4DD00C00EF1000E0F6F0A0E206FCDDD77
:101C200000C014F1000E156F0B0E206FC6DD00C052
:101C300012F1000E136F0C0E206FBFDD00C016F105
:101C4000000E176F000E0F1902E1FF0E0E1904E1CE
:101C5000010E0E6F000E0F6F000E151902E1FF0E40
:101C6000141904E1010E146F000E156F000E131904
:101C700002E1FF0E121904E1010E126F000E136F44
:101C8000000E171902E1FF0E161904E1010E166F7E
:101C9000000E176F200E926EC30E946E936A22DDB3
:101CA000010E2A6F5FEC00F00C0E2A6F5FEC00F063
:0C1CB00019EC06F0B9EC09F0FBD7FFD7E7
:101DAE0010EE19F0F10E006E010E016EBC0EF66E05
:0E1DBE001C0EF76E000EF86ED5EC0BF0120046
:101CBC005174642E20434F4D5052494D49444F535B
:011CCC000017
:101CCD0044495350202054454D504F2020517464A9
:011CDD000006
:021CDE00000004
:021CE000000002
:021CE200000000
:021CE4000000FE
:021CE6000000FC
:0E1CE80050524F4752414D4520556E2E3A0046
:101CF600202044495350454E534552204445202008
:011D060000DC
:101D07002020202020504152414E444F20202020A7
:011D170000CB
:101D18002020202020434F4E544147454D2020206D
:011D280000BA
:101D290050524F4752414D45204E554D45524F3A1D
:011D390000A9
:101D3A002020202052454D4544494F532020202041
:011D4A000098
:101D4B0045544543204C4155524F20474F4D455329
:011D5B000087
:101D5C0020203341204D4543412032303231202068
:011D6C000076
:021D6D00000074
:021D6F00000072
:021D7100000070
:021D730000006E
:021D750000006C
:021D770000006A
:021D7900000068
:021D7B00000066
:021D7D00000064
:021D7F00000062
:021D8100000060
:021D830000005E
:021D850000005C
:021D870000005A
:021D8900000058
:021D8B00000056
:021D8D00000054
:021D8F00000052
:021D9100000050
:021D930000004E
:021D950000004C
:021D970000004A
:021D9900000048
:021D9B00000046
:041D9D006469610014
:041DA1006820200096
:021DA50000003C
:021DA70000003A
:021DA900000038
:021DAB00000036
:020000040030CA
:0E000000000C1F1EFF8381FF0FC00FE00F409A
:00000001FF
