:04000000DAEF07F03C
:1000080000C017F00CC016F00DC015F09EA012D05D
:100018009E903C0ECF6EB00ECE6E0001C44BC52B29
:10002800C84BC92BCA4BCB2BCC4BCD2B184A192A02
:10003800C04BC12BF2A40CD00001F2943C0ED76E39
:10004800B00ED66EDE4BDF2BD84BD92B564A572A2B
:1000580066EC07F03DEC07F0EBEC06F014EC07F06B
:0E00680017C000F016C00CF015C00DF011000E
:0600760000000000120072
:10007C000F0E0C6E470E0D6E0D2EFED70C2EFCD7F0
:06008C000000000012005C
:0A009200210E0D6E0D2EFED7120098
:10009C000001F3BF02D0839E01D0838EF3BD02D04A
:1000AC00839C01D0838CF3BB02D0839A01D0838ACA
:1000BC00F3B902D0839801D08388E1BD02D0838448
:1000CC0001D083948386D1DF8396F3B702D0839ECD
:1000DC0001D0838EF3B502D0839C01D0838CF3B313
:1000EC0002D0839A01D0838AF3B102D0839801D0D5
:1000FC008388E1BD02D0838401D083948386B5DFED
:0E010C008396E1AD02D0B4DF01D0BDDF12005A
:0E011A000001E19DF2C0F3F0BCDFE18D1200A8
:0C0128000001E095E189D46BD56B12005A
:0C0134000001E093E187C66BC76B12006E
:0C0140000001E09DE087C26BC36B120061
:10014C00000E0001C35D02E10A0EC25D18E280924E
:10015C002F0E0C6EBF0E0D6E0D2EFED70C2EFCD777
:10016C00000000008082060E0C6E300E0D6E0D2EFF
:10017C00FED70C2EFCD700008092C24BC32B000E76
:0E018C00C31902E10A0EC21901E1D4DF12000C
:10019A00000E0001D55D02E10A0ED45D18E2809AD4
:1001AA00310E0C6E0B0E0D6E0D2EFED70C2EFCD7DB
:1001BA0000000000808A040E0C6EE40E0D6E0D2EF7
:1001CA00FED70C2EFCD70000809AD44BD52B000EFC
:0E01DA00D51902E10A0ED419D8B4E199120029
:1001E800000E0001C75D02E10A0EC65D18E28098A4
:1001F800310E0C6E0B0E0D6E0D2EFED70C2EFCD78D
:10020800000000008088040E0C6EE40E0D6E0D2EAA
:10021800FED70C2EFCD700008098C64BC72B000ECB
:0E022800C71902E10A0EC619D8B4E1971200F8
:10023600000E0001C75D02E10A0EC65D18E2809855
:100246002F0E0C6EBF0E0D6E0D2EFED70C2EFCD78C
:10025600000000008088060E0C6E300E0D6E0D2E0E
:10026600FED70C2EFCD700008098C64BC72B000E7D
:0E027600C71902E10A0EC61901E159DF120094
:10028400000E0001D55D02E10A0ED45D18E2809AE9
:100294002F0E0C6EBF0E0D6E0D2EFED70C2EFCD73E
:1002A40000000000808A060E0C6E300E0D6E0D2EBE
:1002B400FED70C2EFCD70000809AD44BD52B000E11
:0E02C400D51902E10A0ED41901E12CDF120057
:1002D200000E0001C35D02E10A0EC25D18E28092C7
:1002E200310E0C6E0B0E0D6E0D2EFED70C2EFCD7A2
:1002F200000000008082040E0C6EE40E0D6E0D2EC6
:10030200FED70C2EFCD700008092C24BC32B000EEE
:0E031200C31902E10A0EC219D8B4E097120016
:1003200010D0800E0001ED6F1AD0C00EED6F17D007
:10033000940EED6F14D0D40EED6F11D0800EED6FD2
:100340000ED00001ED51010AECE0ED51020AEDE0A2
:10035000ED51030AEDE0ED51040AEDE0EFD7EE05B3
:10036000006EED51002600C0EDF000C0F3F096DE07
:10037000E19DF16BF151EF25E96E000EF021EA6E7F
:10038000EE520BE0F151EF25E96E000EF021EA6E1E
:0E039000EECFF2F0C2DEF12BEDD7E18D1200C0
:10039E0010D0800E0001ED6F1AD0C00EED6F17D089
:1003AE00940EED6F14D0D40EED6F11D0800EED6F54
:1003BE000ED00001ED51010AECE0ED51020AEDE024
:1003CE00ED51030AEDE0ED51040AEDE0EFD7EE0535
:1003DE00006EED51002600C0EDF0E18D00C0F3F08F
:0E03EE0056DEE19DEFC0F3F052DEE18D12000D
:1003FC00086A096A100E0C6E01340836093604506E
:10040C00085E0550D8A0053C095ED8B007D0045052
:10041C0008260550D8B0053C0926D8900036013680
:06042C000C2EEAD71200BD
:10043200000E006E0001C151005C02E1C0510308D0
:1004420002E2C06BC16B000EC11902E1030EC019BA
:100452000AE1C06BC16B8074D64BD72BE6B503D0D3
:08046200D66BD76B80941200E9
:0C046A000001E08DE097C26BC36B120034
:0C0476000001E085E199D46BD56B120009
:100482000001E0B105D0E0B903D0E0BB01D01AD041
:10049200000ED75D02E10A0ED65D02E2C9DF12D07C
:1004A200E0A103D0E091CE6BCF6BE0A903D0E0993D
:1004B200D06BD16BE0AB03D0E09BD26BD36BD66B2E
:0604C200D76B80941200CC
:0C04C8000001E083E197C66BC76B1200D7
:1004D400A6A202D00000FCD7A69CEAC0A9FFEBC0EC
:1004E400A8FFA69EA684F2CF00F0F29E550EA76E3A
:1004F400AA0EA76EA68200BE02D0F29E01D0F28E92
:0E050400A694A1B802D00000FCD7A198120066
:100512000B6A0A6A096A00500402F4CF09F0F3CFA9
:1005220008F001500502F4CF0BF0F3CF0AF00050AF
:100532000502F3500926F4500A22E86A0B22015000
:100542000402F3500926F4500A22E86A0B2208C07A
:1005520000F009C001F00AC002F00BC003F0120063
:100562000001E0BD03D0E0B701D0E19BE0AD03D0D4
:10057200E0B701D0EADDE0BD03D0E0A701D0A8DEFC
:10058200E0B303D0E1B701D0E193E0A303D0E1B738
:1005920001D050DEE0B303D0E1A701D024DEE0B504
:1005A20003D0E1B901D0E195E0A503D0E1B901D0D2
:0E05B20068DEE0B503D0E1A901D0EEDD120055
:1005C000000E0001DD1902E1000EDC193EE10A0E09
:1005D000046E000E056EE7C000F0E8C001F00EDF0B
:1005E00000C0EBF001C0ECF00A0E046E000E056EC8
:1005F000E7C000F0E8C001F001DF08C000F009C06A
:1006000001F000C0EAF0020EED6F020EEE6F300E48
:10061000EB25EF6FC4DE300EEA25F26F7EDDE1BF21
:1006200009D0020EED6F050EEE6F1A0EEF6F000E81
:10063000F06F76DEE1AF09D0020EED6F050EEE6FC2
:100640001E0EEF6F000EF06F6BDE000EDD1902E183
:10065000010EDC193EE10A0E046E000E056EE2C0CA
:1006600000F0E3C001F0CADE00C0EBF001C0ECF026
:100670000A0E046E000E056EE2C000F0E3C001F049
:10068000BDDE08C000F009C001F000C0EAF0020EB3
:10069000ED6F020EEE6F300EEB25EF6F80DE300E49
:1006A000EA25F26F3ADDE6B109D0020EED6F050ED4
:1006B000EE6F1A0EEF6F000EF06F32DEE6A109D07A
:1006C000020EED6F050EEE6F1E0EEF6F000EF06F57
:1006D00027DE000EDD1902E1020EDC193EE10A0EF2
:1006E000046E000E056EE4C000F0E5C001F086DE89
:1006F00000C0EBF001C0ECF00A0E046E000E056EB7
:10070000E4C000F0E5C001F079DE08C000F009C0E7
:1007100001F000C0EAF0020EED6F020EEE6F300E37
:10072000EB25EF6F3CDE300EEA25F26FF6DCE6B724
:1007300009D0020EED6F050EEE6F1A0EEF6F000E70
:10074000F06FEEDDE6A709D0020EED6F050EEE6F3D
:0C0750001E0EEF6F000EF06FE3DD1200D4
:10075C00959695949598959A959C959E8396839449
:10076C00839E839C839A839883DC82DC81DC838ADE
:10077C00838883867ADC83967BDC838676DC83961F
:10078C0077DC838672DC839673DC839883866DDCDE
:10079C0083966EDC838669DC8396839A838E83864C
:1007AC0064DC839665DC839E838883865EDC83961B
:1007BC00839883865ADC83965BDC838656DC83962F
:1007CC008388838652DC839653DC839883864DDC46
:1007DC008396838E838C838A8388838646DC839678
:0807EC0047DC0001E18D120061
:1007F40082B002D00001E68382A074D00001E6A397
:1008040071D0010EF36F48DCE693E6B56BD0DA4B9A
:10081400DB2B000EDB1902E1030EDA1963E1DA6B5C
:10082400DB6B010EEA6FE7C0EBF052DE1A0E0C6EC2
:10083400F80E0D6E0D2EFED70C2EFCD70000030E05
:100844000001EA6F000EE1BF010EEB6F41DE1A0EEC
:100854000C6EF80E0D6E0D2EFED70C2EFCD700007C
:10086400020E0001EA6FE2C0EBF032DE1A0E0C6EEB
:10087400F80E0D6E0D2EFED70C2EFCD70000040EC4
:100884000001EA6F000EE6B1010EEB6F21DE1A0ED5
:100894000C6EF80E0D6E0D2EFED70C2EFCD700003C
:1008A400050E0001EA6FE4C0EBF012DE1A0E0C6EC6
:1008B400F80E0D6E0D2EFED70C2EFCD70000060E82
:1008C4000001EA6F000EE6B7010EEB6F01DE1A0EAF
:1008D4000C6EF80E0D6E0D2EFED70C2EFCD70000FC
:1008E4000001E68D82B202D00001E68F82A247D0D9
:1008F4000001E6AF44D0010EF36F4EEC00F0E69F2A
:10090400000EDD1902E1000EDC190FE1000EDB1907
:1009140002E1010EDA1902E1E74BE82B000EDB19C4
:1009240002E1020EDA19D8B4E17F000EDD1902E10A
:10093400010EDC190FE1000EDB1902E1010EDA19D8
:1009440002E1E24BE32B000EDB1902E1020EDA199D
:10095400D8B4E671000EDD1902E1020EDC190FE1D4
:10096400000EDB1902E1010EDA1902E1E44BE52B7A
:10097400000EDB1902E1020EDA19D8B4E67782B46C
:1009840002D00001E68B82A44DD00001E6AB4AD030
:10099400010EF36F4EEC00F0E69B000EDD1902E150
:1009A400000EDC1911E1000EDB1902E1010EDA1967
:1009B40004E1010EE75F000EE85B000EDB1902E1C3
:1009C400020EDA19D8B4E17F000EDD1902E1010E3E
:1009D400DC1911E1000EDB1902E1010EDA1904E160
:1009E400010EE25F000EE35B000EDB1902E1020E72
:1009F400DA19D8B4E671000EDD1902E1020EDC1931
:100A040011E1000EDB1902E1010EDA1904E1010E15
:100A1400E45F000EE55B000EDB1902E1020EDA1959
:100A2400D8B4E67782B802D00001E68982A82AD039
:100A34000001E6A927D0010EF36F4EEC00F0E69911
:100A4400000EE81902E1000EE7190AE1000EE319AD
:100A540002E1000EE21904E1E451E51101E112D0D2
:100A6400000EDB1902E1000EDA190CE1E6B506D03E
:100A7400DE6BDF6BD86BD96B566A576AE675E6B5E1
:100A840001D0E08F0001E1BF04D0E7C058F0E8C016
:100A940059F0E1AF0DD0E7C000F0E8C001F0050E59
:100AA400046E000E056E33DD00C058F001C059F02D
:100AB400E6B104D0E2C052F0E3C053F0E6A10DD099
:100AC400E2C000F0E3C001F0050E046E000E056EF6
:100AD4001EDD00C052F001C053F0E6B704D0E4C0FC
:100AE40054F0E5C055F0E6A70DD0E4C000F0E5C031
:100AF40001F0050E046E000E056E09DD00C054F011
:100B040001C055F082AAE18182AA17D0E1A115D0D3
:100B1400010EF36F4EEC00F0E191000EDB1902E1DF
:100B2400000EDA190AE0DC4BDD2B000EDD1902E1C0
:0C0B3400030EDC1902E1DC6BDD6B12002B
:100B40000900F5CFE6FF0006FBE10106F9E112001E
:100B5000A69CE9C0A9FFA69EA680A8CF00F012001F
:100B60000001E6B56DD0000EDB1902E1000EDA19C6
:100B700067E1E6BD17D0E0BF15D0010EED6F010EA5
:100B8000EE6F8D0EEF6F000EF06F90EC01F0020E25
:100B9000ED6F010EEE6F9E0EEF6F000EF06F90EC9A
:100BA00001F04ED0E6AD25D0E0BF23D0E69D010E8A
:100BB000ED6F010EEE6FAF0EEF6F000EF06F90EC69
:100BC00001F0020EED6F010EEE6F5A0EEF6F000E88
:100BD000F06F90EC01F00B0E0B6E260E0C6E5D0E9E
:100BE0000D6E0D2EFED70C2EFCD70B2EFAD7000063
:100BF0000000E6BD25D0E0AF23D0E09F010EED6FF1
:100C0000010EEE6F6B0EEF6F000EF06F90EC01F0C7
:100C1000020EED6F010EEE6F7C0EEF6F000EF06FA7
:100C200090EC01F00B0E0B6E260E0C6E5D0E0D6E31
:100C30000D2EFED70C2EFCD70B2EFAD7000000008D
:100C4000000EDB1902E1010EDA1935E1010EED6F3C
:100C5000010EEE6F220EEF6F000EF06F90EC01F0C0
:100C6000AFDC000EDD1902E1000EDC1908E1020E16
:100C7000ED6F0E0EEE6F310EEF6FCFEC01F0000E48
:100C8000DD1902E1010EDC1908E1020EED6F0E0E16
:100C9000EE6F320EEF6FCFEC01F0000EDD1902E1C6
:100CA000020EDC1908E1020EED6F0E0EEE6F330E30
:100CB000EF6FCFEC01F0000EDB1902E1020EDA1942
:100CC00035E1010EED6F010EEE6F330EEF6F000E8A
:100CD000F06F90EC01F074DC000EDD1902E1000E03
:100CE000DC1908E1020EED6F0E0EEE6F310EEF6FA4
:100CF000CFEC01F0000EDD1902E1010EDC1908E174
:100D0000020EED6F0E0EEE6F320EEF6FCFEC01F0B4
:100D1000000EDD1902E1020EDC1908E1020EED6F92
:100D20000E0EEE6F330EEF6FCFEC01F0E6A552D052
:100D3000010EED6F010EEE6F410EEF6F000EF06FC2
:100D400090EC01F0000E006E1950005C02E11850AA
:100D5000140802E2186A196A000E191802E1140E4A
:100D6000181836E1186A196ADC4BDD2B000EDD1904
:100D700002E1030EDC1902E1DC6BDD6B000EDD1914
:100D800002E1000EDC1908E1020EED6F0E0EEE6FAF
:100D9000310EEF6FCFEC01F0000EDD1902E1010E14
:100DA000DC1908E1020EED6F0E0EEE6F320EEF6FE2
:100DB000CFEC01F0000EDD1902E1020EDC1908E1B2
:100DC000020EED6F0E0EEE6F330EEF6FCFEC01F0F3
:060DD000E0EC02F012004D
:100DD6000001E6B502D0D06BD16BE6A521D0000E9E
:100DE600E31902E1000EE2191BE0000ED91902E137
:100DF6000A0ED81904E1D86BD96BD04BD12BD1513F
:100E0600531802E15250D01904E1E089E18364EC01
:100E160002F0E1A303D0B1EC02F002D041EC02F003
:020E26001200B8
:100E28000001E6B502D0D26BD36BE6A521D0000E47
:100E3800E51902E1000EE4191BE0000E571802E163
:100E48000A0E561804E1566A576AD24BD32BD3516F
:100E5800551802E15450D21904E1E08BE1853BECCE
:100E680002F0E1A503D0B1EC02F002D041EC02F0AF
:020E7800120066
:100E7A000001E6B502D0CE6BCF6BE6A521D0000EFD
:100E8A00E81902E1000EE7191BE0000EDF1902E182
:100E9A000A0EDE1904E1DE6BDF6BCE4BCF2BCF518E
:100EAA00591802E15850CE1904E1E081E18B35EC82
:100EBA0002F0E1AB03D0B1EC02F002D041EC02F057
:020ECA00120014
:100ECC000001E6A512D0E0B110D0000EE81902E145
:100EDC00000EE7190AE0000EC55D02E10A0EC45DC2
:100EEC0003E3C46BC56B80700FD0E6A50CD0E0A1FA
:100EFC000AD0000EC55D02E1020EC45D03E3C46BB3
:100F0C00C56B807001D08090000EC91902E1050EEE
:100F1C00C81903E1C86BC96B8076E6A512D0E0B99D
:100F2C0010D0000EE31902E1000EE2190AE0000EE7
:100F3C00CB5D02E10A0ECA5D03E3CA6BCB6B817019
:100F4C000FD0E6A50CD0E0A90AD0000ECB5D02E1D3
:100F5C00020ECA5D03E3CA6BCB6B817001D081902A
:100F6C00E6A512D0E0BB10D0000EE51902E1000E90
:100F7C00E4190AE0000ECD5D02E10A0ECC5D03E33C
:100F8C00CC6BCD6B81720FD0E6A50CD0E0AB0AD048
:100F9C00000ECD5D02E1020ECC5D03E3CC6BCD6B9C
:080FAC00817201D08192120054
:100FB400ABEC08F00F0EC16E070EB46E3C0ED76E8C
:100FC400B00ED66E3C0ECF6EB00ECE6EF28EF28C9C
:100FD400F28AF2949E90F18E810ED56EA10ECD6EA2
:100FE4000001E695E693E69FE69BE699E191E69D8E
:100FF400E091E099E09BE09DE093E095E097E19734
:10100400E199E19BE193E1958092010EE96F9EDD08
:1010140000C0E7F0000EE86F030EE96F97DD00B043
:1010240002D0E19F01D0E18F020EE96F8FDD00C095
:10103400E2F0000EE36F040EE96F88DD00B002D029
:10104400E69101D0E681050EE96F80DD00C0E4F091
:10105400000EE56F060EE96F79DD00B002D0E69769
:1010640001D0E687926A3F0E946E936AAEEC03F069
:10107400010EF36F4EEC00F00C0EF36F4EEC00F02B
:0A108400FAEC03F06BDDFCD7FFD798
:1011560010EE18F0C80E006E010E016E8E0EF66EC1
:0E116600100EF76E000EF86EA0EC05F01200F1
:02108E00000060
:0410900068202000B4
:04109400646961002A
:1010980050524F4752414D45204E554D45524F3ABB
:0110A8000047
:0E10A90050524F4752414D4520556E2E3A0091
:1010B700434F4E54414E444F3A2020204449535009
:0110C7000028
:0210C800000026
:0210CA00000024
:0210CC00000022
:0210CE00000020
:1010D00020203341204D4543412032303231202001
:0110E000000F
:1010E1002020202020504152414E444F20202020DA
:0110F10000FE
:1010F2002020202020434F4E544147454D202020A0
:0111020000EC
:10110300202044495350454E534552204445202006
:0111130000DB
:101114002020202052454D4544494F532020202073
:0111240000CA
:1011250045544543204C4155524F20474F4D45535B
:0111350000B9
:021136000000B7
:021138000000B5
:02113A000000B3
:02113C000000B1
:02113E000000AF
:021140000000AD
:021142000000AB
:021144000000A9
:021146000000A7
:021148000000A5
:02114A000000A3
:02114C000000A1
:02114E0000009F
:0211500000009D
:0211520000009B
:02115400000099
:020000040030CA
:0E000000000C1F1EFF8381FF0FC00FE00F409A
:00000001FF
