:0400000006EF09F00E
:1000080000C017F00CC016F00DC015F09EA016D059
:100018009E903C0ECF6EB00ECE6E0001C84BC92B21
:10002800CE4BCF2BD04BD12BD24BD32B7B4B7C2B16
:10003800C44BC52BDE4BDF2BE04BE12BF2A40CD0DD
:100048000001F2943C0ED76EB00ED66E924B932BF5
:10005800944B952B964B972B62EC08F039EC08F0F3
:10006800E7EC07F010EC08F017C000F016C00CF031
:0600780015C00DF011009F
:06007E000000000012006A
:100084000F0E0C6E470E0D6E0D2EFED70C2EFCD7E8
:0600940000000000120054
:0A009A00210E0D6E0D2EFED7120090
:1000A4000001F8BF02D0839E01D0838EF8BD02D038
:1000B400839C01D0838CF8BB02D0839A01D0838ABD
:1000C400F8B902D0839801D08388E5BD02D0838437
:1000D40001D083948386D1DF8396F8B702D0839EC0
:1000E40001D0838EF8B502D0839C01D0838CF8B301
:1000F40002D0839A01D0838AF8B102D0839801D0C8
:100104008388E5BD02D0838401D083948386B5DFE0
:0E0114008396E5AD02D0B4DF01D0BDDF12004E
:0E0122000001E59DF7C0F8F0BCDFE58D12008E
:0C0130000001E495E58BD66BD76B120044
:0C013C000001E493E589CC6BCD6B120050
:0C0148000001E491E587C66BC76B120054
:10015400000E0001C75D02E10A0EC65D18E280923E
:100164002F0E0C6EBF0E0D6E0D2EFED70C2EFCD76F
:10017400000000008082060E0C6E300E0D6E0D2EF7
:10018400FED70C2EFCD700008092C64BC72B000E66
:0E019400C71902E10A0EC61901E1D4DF1200FC
:1001A200000E0001D75D02E10A0ED65D18E2809AC8
:1001B200310E0C6E0B0E0D6E0D2EFED70C2EFCD7D3
:1001C20000000000808A040E0C6EE40E0D6E0D2EEF
:1001D200FED70C2EFCD70000809AD64BD72B000EF0
:0E01E200D71902E10A0ED619D8B4E59B120017
:1001F000000E0001C75D02E10A0EC65D18E28092A2
:10020000310E0C6E0B0E0D6E0D2EFED70C2EFCD784
:10021000000000008082040E0C6EE40E0D6E0D2EA8
:10022000FED70C2EFCD700008092C64BC72B000EC9
:0E023000C71902E10A0EC619D8B4E5971200EC
:10023E00000E0001CD5D02E10A0ECC5D18E2809841
:10024E002F0E0C6EBF0E0D6E0D2EFED70C2EFCD784
:10025E00000000008088060E0C6E300E0D6E0D2E06
:10026E00FED70C2EFCD700008098CC4BCD2B000E69
:0E027E00CD1902E10A0ECC1901E159DF120080
:10028C00000E0001D75D02E10A0ED65D18E2809ADD
:10029C002F0E0C6EBF0E0D6E0D2EFED70C2EFCD736
:1002AC0000000000808A060E0C6E300E0D6E0D2EB6
:1002BC00FED70C2EFCD70000809AD64BD72B000E05
:0E02CC00D71902E10A0ED61901E12CDF12004B
:1002DA00000E0001CD5D02E10A0ECC5D18E28098A5
:1002EA00310E0C6E0B0E0D6E0D2EFED70C2EFCD79A
:1002FA00000000008088040E0C6EE40E0D6E0D2EB8
:10030A00FED70C2EFCD700008098CC4BCD2B000ECC
:0E031A00CD1902E10A0ECC19D8B4E5991200F3
:1003280010D0800E0001F26F1AD0C00EF26F17D0F5
:10033800940EF26F14D0D40EF26F11D0800EF26FBB
:100348000ED00001F251010AECE0F251020AEDE090
:10035800F251030AEDE0F251040AEDE0EFD7F3059C
:10036800006EF251002600C0F2F000C0F8F096DEF0
:10037800E59DF66BF651F425E96E000EF521EA6E5F
:10038800EE520BE0F651F425E96E000EF521EA6E07
:0E039800EECFF7F0C2DEF62BEDD7E58D1200AA
:1003A60010D0800E0001F26F1AD0C00EF26F17D077
:1003B600940EF26F14D0D40EF26F11D0800EF26F3D
:1003C6000ED00001F251010AECE0F251020AEDE012
:1003D600F251030AEDE0F251040AEDE0EFD7F3051E
:1003E600006EF251002600C0F2F0E58D00C0F8F074
:0E03F60056DEE59DF4C0F8F052DEE58D1200F3
:10040400086A096A100E0C6E013408360936045065
:10041400085E0550D8A0053C095ED8B007D004504A
:1004240008260550D8B0053C0926D8900036013678
:060434000C2EEAD71200B5
:10043A00000E006E0001C551005C02E1C4510308C0
:10044A0002E2C46BC56B000EC51902E1030EC419A2
:10045A000AE1C46BC56B8074D84BD92BE5BF03D0B6
:08046A00D86BD96B80941200DD
:0C0472000001E481E597C66BC76B120027
:0C047E000001E485E59BD66BD76B1200F3
:10048A000001E4B705D0E4B903D0E4BB01D01AD027
:10049A00000ED95D02E10A0ED85D02E2C9DF12D070
:1004AA00E4A703D0E497DA6BDB6BE4A903D0E49901
:1004BA00D46BD56BE4AB03D0E49BCA6BCB6BD86B24
:0604CA00D96B80941200C2
:0C04D0000001E483E599CC6BCD6B1200B9
:1004DC000001E4B103D0E5B701D0E591E4A103D06C
:1004EC00E5B701D031DEE4B103D0E5A701D07ADE67
:1004FC00E4B303D0E5B901D0E593E4A303D0E5B9A7
:10050C0001D097DEE4B303D0E5A901D0E0DEE4B579
:10051C0003D0E5BB01D0E595E4A503D0E5BB01D044
:0E052C00AFDEE4B503D0E5AB01D035DE120042
:10053A00A6A202D00000FCD7A69CEFC0A9FFF0C07B
:10054A00A8FFA69EA684F2CF00F0F29E550EA76ED3
:10055A00AA0EA76EA68200BE02D0F29E01D0F28E2B
:0E056A00A694A1B802D00000FCD7A198120000
:10057800000E006E0001DF51005C02E1DE51070849
:1005880002E2DE6BDF6B000EDF1902E1070EDE19F7
:1005980003E1DE6BDF6BEA83EAA362D0000EDD19AC
:1005A80002E1000EDC191CE1000EE31902E1010E64
:1005B800E21916E1000E006EE151005C02E1E05123
:1005C800050802E2E06BE16B000EE11902E1050E9D
:1005D800E01906E1E06BE16B020EEB27000EEC235D
:1005E800000EDD1902E1010EDC191CE1000EE31911
:1005F80002E1010EE21916E1000E006EE151005C05
:1006080002E1E051050802E2E06BE16B000EE1193E
:1006180002E1050EE01906E1E06BE16B020EE82746
:10062800000EE923000E006EEC51005C02E1EB5174
:10063800180802E2EB6BEC6B000E006EE951005CEF
:1006480002E1E851180802E2E86BE96B000E006E5F
:10065800E751005C02E1E651180802E2E66BE76B3D
:10066800000EDD1902E1020EDC191CE1000EE3198F
:1006780002E1010EE21916E1000E006EE151005C84
:1006880002E1E051050802E2E06BE16B000EE119BE
:1006980002E1050EE01906E1E06BE16B020EE627C8
:0606A800000EE723120022
:1006AE00000E0001DD1902E1000EDC193EE10A0E1A
:1006BE00046E000E056EEBC000F0ECC001F09BDE88
:1006CE0000C0F0F001C0F1F00A0E046E000E056ECF
:1006DE00EBC000F0ECC001F08EDE08C000F009C0E7
:1006EE0001F000C0EFF0020EF26F020EF36F300E4B
:1006FE00F025F46F51DE300EEF25F76F0BDDEABFFC
:10070E0009D0020EF26F050EF36FC00EF46F000EDD
:10071E00F56F03DEEAAF09D0020EF26F050EF36F2E
:10072E009A0EF46F000EF56FF8DD000EDD1902E182
:10073E00010EDC193EE10A0E046E000E056EE8C0D5
:10074E0000F0E9C001F057DE00C0F0F001C0F1F09A
:10075E000A0E046E000E056EE8C000F0E9C001F04E
:10076E004ADE08C000F009C001F000C0EFF0020E32
:10077E00F26F020EF36F300EF025F46F0DDE300EB9
:10078E00EF25F76FC7DCEABB09D0020EF26F050E3C
:10079E00F36FC00EF46F000EF56FBFDDEAAB09D03C
:1007AE00020EF26F050EF36F9A0EF46F000EF56FD8
:1007BE00B4DD000EDD1902E1020EDC193EE10A0E77
:1007CE00046E000E056EE6C000F0E7C001F013DE09
:1007DE0000C0F0F001C0F1F00A0E046E000E056EBE
:1007EE00E6C000F0E7C001F006DE08C000F009C068
:1007FE0001F000C0EFF0020EF26F020EF36F300E3A
:10080E00F025F46FC9DD300EEF25F76F83DCEAB704
:10081E0009D0020EF26F050EF36FC00EF46F000ECC
:10082E00F56F7BDDEAA709D0020EF26F050EF36FAE
:0C083E009A0EF46F000EF56F70DD1200D2
:10084A000B6A0A6A096A00500402F4CF09F0F3CF6E
:10085A0008F001500502F4CF0BF0F3CF0AF0005074
:10086A000502F3500926F4500A22E86A0B220150C5
:10087A000402F3500926F4500A22E86A0B2208C03F
:10088A0000F009C001F00AC002F00BC003F0120028
:10089A00959695949598959A959C959E839683940A
:1008AA00839E839C839A839842EC00F042EC00F08A
:1008BA0042EC00F0838A838883863FEC00F08396BB
:1008CA0042EC00F083863FEC00F0839642EC00F0A5
:1008DA0083863FEC00F0839642EC00F0839883868F
:1008EA003FEC00F0839642EC00F083863FEC00F088
:1008FA008396839A838E83863FEC00F0839642EC3C
:10090A0000F0839E838883863FEC00F08396839869
:10091A0083863FEC00F0839642EC00F083863FEC3E
:10092A0000F08396838883863FEC00F0839642EC3E
:10093A0000F0839883863FEC00F08396838E838C45
:10094A00838A838883863FEC00F0839642EC00F02A
:06095A000001E58D120012
:1009600082B002D00001EA8182A075D00001EAA124
:1009700072D0010EF86F52EC00F0EA91E5BF6BD037
:10098000E24BE32B000EE31902E1030EE21963E1EF
:10099000E26BE36B010EEF6FEBC0F0F0CEDD1A0EF1
:1009A0000C6EF80E0D6E0D2EFED70C2EFCD700002F
:1009B000030E0001EF6F000EEABF010EF06FBDDD08
:1009C0001A0E0C6EF80E0D6E0D2EFED70C2EFCD7E7
:1009D0000000020E0001EF6FE8C0F0F0AEDD1A0E6D
:1009E0000C6EF80E0D6E0D2EFED70C2EFCD70000EF
:1009F000040E0001EF6F000EEABB010EF06F9DDDEB
:100A00001A0E0C6EF80E0D6E0D2EFED70C2EFCD7A6
:100A10000000050E0001EF6FE6C0F0F08EDD1A0E4B
:100A20000C6EF80E0D6E0D2EFED70C2EFCD70000AE
:100A3000060E0001EF6F000EEAB7010EF06F7DDDCC
:100A40001A0E0C6EF80E0D6E0D2EFED70C2EFCD766
:100A500000000001EA8582B203D00001EA898CDD42
:100A600082A266D00001EAA963D0010EF86F52ECB1
:100A700000F0EA99EA93000EDD1902E1000EDC199C
:100A800019E1000EE31902E1010EE21902E1EB4B5C
:100A9000EC2B000EE31902E1020EE219D8B4EA7F52
:100AA000000E006EEC51005C02E1EB51180802E20E
:100AB000EB6BEC6B000EDD1902E1010EDC1919E1A4
:100AC000000EE31902E1010EE21902E1E84BE92B05
:100AD000000EE31902E1020EE219D8B4EA7B000E1F
:100AE000006EE951005C02E1E851180802E2E86B8F
:100AF000E96B000EDD1902E1020EDC1919E1000EAE
:100B0000E31902E1010EE21902E1E64BE72B000EC8
:100B1000E31902E1020EE219D8B4EA77000E006E82
:100B2000E751005C02E1E651180802E2E66BE76B70
:100B300082B402D00001ED8182A471D00001EDA148
:100B40006ED0010EF86F52EC00F0ED91000EDD1941
:100B500002E1000EDC191DE1000EE31902E1010EB5
:100B6000E21904E1010EEB5F000EEC5B000EE319ED
:100B700002E1020EE219D8B4EA7F000E006EEC51D9
:100B8000005C02E1EB51180804E2180EEB6F000E56
:100B9000EC6F000EDD1902E1010EDC191DE1000E03
:100BA000E31902E1010EE21904E1010EE85F000E13
:100BB000E95B000EE31902E1020EE219D8B4EA7B08
:100BC000000E006EE951005C02E1E851180804E2F1
:100BD000180EE86F000EE96F000EDD1902E1020E3B
:100BE000DC191DE1000EE31902E1010EE21904E136
:100BF000010EE65F000EE75B000EE31902E1020E54
:100C0000E219D8B4EA77000E006EE751005C02E109
:100C1000E651180804E2180EE66F000EE76F82B87E
:100C200002D00001EA8D82A82AD00001EAAD27D0C7
:100C3000010EF86F52EC00F0EA9D000EEC1902E193
:100C4000000EEB190AE1000EE91902E1000EE819A5
:100C500004E1E651E71101E112D0000EE31902E1CF
:100C6000000EE2190CE1E5BF06D0926B936B946B1A
:100C7000956B966B976BE57FE5BF01D0E48D000126
:100C8000EABF04D0EBC08EF0ECC08FF0EAAF0DD01D
:100C9000EBC000F0ECC001F0050E046E000E056E16
:100CA000D4DD00C08EF001C08FF0EABB04D0E8C0F4
:100CB00090F0E9C091F0EAAB0DD0E8C000F0E9C0D7
:100CC00001F0050E046E000E056EBFDD00C090F051
:100CD00001C091F0EAB704D0E6C098F0E7C099F0FF
:100CE000EAA70DD0E6C000F0E7C001F0050E046EE3
:100CF000000E056EAADD00C098F001C099F082AA2E
:100D0000E48F82AA17D0E4AF15D0010EF86F52EC31
:100D100000F0E49F000EE31902E1000EE2190AE080
:100D2000DC4BDD2B000EDD1902E1030EDC1902E1C4
:060D3000DC6BDD6B12001C
:100D36000900F5CFE6FF0006FBE10106F9E1120026
:100D4600A69CEEC0A9FFA69EA680A8CF00F0120022
:100D56000001E5BF6DD0000EE31902E1000EE219B5
:100D660067E1EAB517D0E4BD15D0010EF26F010EAA
:100D7600F36F9E0EF46F000EF56F94EC01F0020E09
:100D8600F26F010EF36FAF0EF46F000EF56F94EC79
:100D960001F04ED0EAA525D0E4BD23D0EA95010E98
:100DA600F26F010EF36F7D0EF46F000EF56F94EC8B
:100DB60001F0020EF26F010EF36F480EF46F000E93
:100DC600F56F94EC01F00B0E0B6E260E0C6E5D0E9D
:100DD6000D6E0D2EFED70C2EFCD70B2EFAD700006B
:100DE6000000EAB525D0E4AD23D0E49D010EF26FF4
:100DF600010EF36F590EF46F000EF56F94EC01F0CF
:100E0600020EF26F010EF36F6A0EF46F000EF56FAD
:100E160094EC01F00B0E0B6E260E0C6E5D0E0D6E35
:100E26000D2EFED70C2EFCD70B2EFAD70000000095
:100E3600000EE31902E1010EE21935E1010EF26F2F
:100E4600010EF36F180EF46F000EF56F94EC01F0BF
:100E56002BDC000EDD1902E1000EDC1908E1020EA2
:100E6600F26F0E0EF36F310EF46FD3EC01F0000E3D
:100E7600DD1902E1010EDC1908E1020EF26F0E0E19
:100E8600F36F320EF46FD3EC01F0000EDD1902E1C0
:100E9600020EDC1908E1020EF26F0E0EF36F330E2E
:100EA600F46FD3EC01F0000EE31902E1020EE21931
:100EB60036E1010EF26F010EF36F290EF46F000E8C
:100EC600F56F94EC01F057EC03F0000EDD1902E12A
:100ED600000EDC1908E1020EF26F0E0EF36F310EF2
:100EE600F46FD3EC01F0000EDD1902E1010EDC19FE
:100EF60008E1020EF26F0E0EF36F320EF46FD3ECB2
:100F060001F0000EDD1902E1020EDC1908E1020E05
:100F1600F26F0E0EF36F330EF46FD3EC01F0E5AF04
:100F260052D0010EF26F010EF36F370EF46F000E02
:100F3600F56F94EC01F0000E006E7C51005C02E14E
:100F46007B51140802E27B6B7C6B000E7C1902E17C
:100F5600140E7B1936E17B6B7C6BDC4BDD2B000EB4
:100F6600DD1902E1030EDC1902E1DC6BDD6B000E1C
:100F7600DD1902E1000EDC1908E1020EF26F0E0E19
:100F8600F36F310EF46FD3EC01F0000EDD1902E1C0
:100F9600010EDC1908E1020EF26F0E0EF36F320E2F
:100FA600F46FD3EC01F0000EDD1902E1020EDC193C
:100FB60008E1020EF26F0E0EF36F330EF46FD3ECF0
:080FC60001F057EC03F01200EA
:100FCE000001E5BF02D0D46BD56BE5AF21D0000E8A
:100FDE00E91902E1000EE8191BE0000E951902E175
:100FEE000A0E941904E1946B956BD44BD52BD55105
:100FFE00911902E19051D41904E1E489E58368EC7A
:10100E0002F0E5A303D06EEC02F002D045EC02F044
:02101E001200BE
:101020000001E5BF02D0CA6BCB6BE5AF21D0000E4B
:10103000E71902E1000EE6191BE0000E971902E124
:101040000A0E961904E1966B976BCA4BCB2BCB51CA
:10105000991902E19851CA1904E1E48BE5853FEC46
:1010600002F0E5A503D06EEC02F002D045EC02F0F0
:0210700012006C
:101072000001E5BF02D0DA6BDB6BE5AF21D0000ED9
:10108200EC1902E1000EEB191BE0000E931902E1CC
:101092000A0E921904E1926B936BDA4BDB2BDB5154
:1010A2008F1902E18E51DA1904E1E487E58139EC06
:1010B20002F0E5A103D06EEC02F002D045EC02F0A2
:0210C20012001A
:1010C4000001E5AF12D0E4B710D0000EEC1902E134
:1010D400000EEB190AE0000EC95D02E10A0EC85DBC
:1010E40003E3C86BC96B80701FD0E5AF0CD0E4A7D5
:1010F4000AD0000EC95D02E1020EC85D03E3C86BAD
:10110400C96B807011D0000E006EE351005C02E1E7
:10111400E251000808E2000EDD1902E1000EDC19BC
:1011240002E1808001D08090000ECF1902E1050E0B
:10113400CE1903E1CE6BCF6B8076E5AF12D0E4B964
:1011440010D0000EE91902E1000EE8190AE0000EC1
:10115400D15D02E10A0ED05D03E3D06BD16B8170E7
:101164001FD0E5AF0CD0E4A90AD0000ED15D02E196
:10117400020ED05D03E3D06BD16B817011D0000EF1
:10118400006EE351005C02E1E251000808E2000E47
:10119400DD1902E1010EDC1902E1818001D08190A8
:1011A400E5AF12D0E4BB10D0000EE71902E1000E47
:1011B400E6190AE0000ED35D02E10A0ED25D03E3F4
:1011C400D26BD36B81721FD0E5AF0CD0E4AB0AD0E5
:1011D400000ED35D02E1020ED25D03E3D26BD36B4A
:1011E400817211D0000E006EE351005C02E1E25105
:1011F400000808E2000EDD1902E1020EDC1902E12A
:08120400818201D081921200E9
:10120C00DCEC09F00F0EC16E070EB46E3C0ED76EFF
:10121C00B00ED66E3C0ECF6EB00ECE6EF28EF28C41
:10122C00F28AF2949E90F18E810ED56EA10ECD6E47
:10123C000001E59FEA91EA99ED91EA9DE49FEA9518
:10124C00EA93E497E499E49BE491E493E495E597BD
:10125C00E599E59BE591E593E59580928098809AD8
:10126C00010EEE6F6ADD00C0EBF0000EEC6F030EAA
:10127C00EE6F63DD00B002D0EA9F01D0EA8F020E60
:10128C00EE6F5BDD00C0E8F0000EE96F040EEE6F50
:10129C0054DD00B002D0EA9B01D0EA8B050EEE6F54
:1012AC004CDD00C0E6F0000EE76F060EEE6F45DD7C
:1012BC0000B002D0EA9701D0EA87926A3F0E946E92
:1012CC00936A4DEC04F0010EF86F52EC00F00C0E2A
:1012DC00F86F52EC00F0B0EC04F037DDFCD7FFD720
:1013B80010EE18F0CC0E006E010E016EEC0EF66EFB
:0E13C800120EF76E000EF86E9BEC06F012008F
:1012EC0050524F4752414D45204E554D45524F3A65
:0112FC0000F1
:0E12FD0050524F4752414D4520556E2E3A003B
:10130B00434F4E54414E444F3A20202044495350B2
:01131B0000D1
:10131C0020203341204D45434120323032312020B2
:01132C0000C0
:10132D002020202020504152414E444F202020208B
:01133D0000AF
:10133E002020202020434F4E544147454D20202051
:01134E00009E
:02134F0000009C
:1013510045544543204C4155524F20474F4D45532D
:01136100008B
:02136200000089
:02136400000087
:02136600000085
:02136800000083
:02136A00000081
:02136C0000007F
:04136E00646961004D
:10137200202044495350454E534552204445202095
:01138200006A
:101383002020202052454D4544494F532020202002
:011393000059
:0413940068202000AD
:02139800000053
:02139A00000051
:02139C0000004F
:02139E0000004D
:0213A00000004B
:0213A200000049
:0213A400000047
:0213A600000045
:0213A800000043
:0213AA00000041
:0213AC0000003F
:0213AE0000003D
:0213B00000003B
:0213B200000039
:0213B400000037
:0213B600000035
:020000040030CA
:0E000000000C1F1EFF8381FF0FC00FE00F409A
:00000001FF
