:040000002FEF06F0E8
:1000080000C017F00CC016F00DC015F09EA010D05F
:100018009E903C0ECF6EB00ECE6E0001C84BC92B21
:10002800C04BC12BCC4BCD2BCA4BCB2B944B952B18
:10003800F2A40AD00001F2943C0ED76EB00ED66E30
:10004800A74BA82BA94BAA2BDEEC05F0B8EC05F0C2
:1000580092EC05F017C000F016C00CF015C00DF0BA
:02006800110085
:06006A000000000012007E
:100070000F0E0C6E470E0D6E0D2EFED70C2EFCD7FC
:0600800000000000120068
:0A008600210E0D6E0D2EFED71200A4
:100090000001E7BF02D0839E01D0838EE7BD02D06E
:1000A000839C01D0838CE7BB02D0839A01D0838AE2
:1000B000E7B902D0839801D08388D7B702D0838470
:1000C00001D083948386D1DF8396E7B702D0839EE5
:1000D00001D0838EE7B502D0839C01D0838CE7B337
:1000E00002D0839A01D0838AE7B102D0839801D0ED
:1000F0008388D7B702D0838401D083948386B5DF09
:0E0100008396D7A702D0B4DF01D0BDDF120076
:0E010E000001D797E6C0E7F0BCDFD7871200EC
:0C011C000001D793D68BC26BC36B12009E
:0C0128000001D69FD68DD06BD16B120069
:10013400000E0001D15D02E10A0ED05D18E2809844
:10014400310E0C6E0B0E0D6E0D2EFED70C2EFCD741
:10015400000000008088040E0C6EE40E0D6E0D2E5F
:10016400FED70C2EFCD700008098D04BD12B000E6C
:0E017400D11902E10A0ED019D8B4D69D12009E
:10018200000E006E0001C151005C02E1C051030883
:1001920002E2C06BC16B000EC11902E1030EC0196D
:1001A2000AE1C06BC16B8074CE4BCF2BD7BF03D09B
:0801B200CE6BCF6B80941200AC
:1001BA00000E0001C35D02E10A0EC25D18E28092E0
:1001CA00310E0C6E0B0E0D6E0D2EFED70C2EFCD7BB
:1001DA00000000008082040E0C6EE40E0D6E0D2EDF
:1001EA00FED70C2EFCD700008092C24BC32B000E08
:0E01FA00C31902E10A0EC219D8B4D69B120036
:10020800000E0001C35D02E10A0EC25D18E2809291
:100218002F0E0C6EBF0E0D6E0D2EFED70C2EFCD7BA
:10022800000000008082060E0C6E300E0D6E0D2E42
:10023800FED70C2EFCD700008092C24BC32B000EB9
:0E024800C31902E10A0EC21901E164DF1200BF
:10025600000E0001D15D02E10A0ED05D18E2809821
:100266002F0E0C6EBF0E0D6E0D2EFED70C2EFCD76C
:10027600000000008088060E0C6E300E0D6E0D2EEE
:10028600FED70C2EFCD700008098D04BD12B000E49
:0E029600D11902E10A0ED01901E143DF120076
:1002A40010D0800E0001E16F1AD0C00EE16F17D09C
:1002B400940EE16F14D0D40EE16F11D0800EE16F73
:1002C4000ED00001E151010AECE0E151020AEDE037
:1002D400E151030AEDE0E151040AEDE0EFD7E20554
:1002E400006EE151002600C0E1F0D78700C0E7F0BE
:0E02F400CDDED797E3C0E7F0C9DED787120052
:10030200086A096A100E0C6E013408360936045068
:10031200085E0550D8A0053C095ED8B007D004504D
:1003220008260550D8B0053C0926D890003601367B
:060332000C2EEAD71200B8
:1003380010D0800E0001E16F1AD0C00EE16F17D007
:10034800940EE16F14D0D40EE16F11D0800EE16FDE
:100358000ED00001E151010AECE0E151020AEDE0A2
:10036800E151030AEDE0E151040AEDE0EFD7E205BF
:10037800006EE151002600C0E1F000C0E7F084DE25
:10038800D797E56BE551E325E96E000EE421EA6EA7
:10039800EE520BE0E551E325E96E000EE421EA6E2A
:0E03A800EECFE6F0B0DEE52BEDD7D7871200E2
:0C03B6000001D783D69BC26BC36B120002
:0C03C2000001D68FD69DD06BD16B1200CD
:1003CE000001D7B303D0D6BB01D0D795D7A303D0A6
:1003DE00D6BB01D012DFD7B303D0D6AB01D0E6DE49
:1003EE00D6BF03D0D6BD01D0D799D6AF03D0D6BDD8
:1003FE0001D02ADFD6BF03D0D6AD01D094DE1200D5
:10040E000001D6B103D0D7B101D015D0000ECF5D0B
:10041E0002E10A0ECE5D02E2ADDE0DD0D6A103D012
:10042E00D691C46BC56BD7A103D0D791C66BC76BE2
:08043E00CE6BCF6B809412001D
:100446000B6A0A6A096A00500402F4CF09F0F3CF76
:1004560008F001500502F4CF0BF0F3CF0AF000507C
:100466000502F3500926F4500A22E86A0B220150CD
:100476000402F3500926F4500A22E86A0B2208C047
:1004860000F009C001F00AC002F00BC003F0120030
:10049600000E0001D51902E1000ED4193EE10A0E44
:1004A600046E000E056ED8C000F0D9C001F026DF3C
:1004B60000C0DFF001C0E0F00A0E046E000E056E0B
:1004C600D8C000F0D9C001F019DF08C000F009C09B
:1004D60001F000C0DEF0020EE16F020EE26F300E98
:1004E600DF25E36FDCDE300EDE25E66F0DDED7BBE3
:1004F60009D0020EE16F050EE26F7F0EE36F000E6C
:10050600E46F17DFD7AB09D0020EE16F050EE26F7D
:100516007B0EE36F000EE46F0CDF000ED51902E1CF
:10052600010ED4193EE10A0E046E000E056EDAC005
:1005360000F0DBC001F0E2DE00C0DFF001C0E0F059
:100546000A0E046E000E056EDAC000F0DBC001F084
:10055600D5DE08C000F009C001F000C0DEF0020ED2
:10056600E16F020EE26F300EDF25E36F98DE300E8C
:10057600DE25E66FC9DDDCB309D0020EE16F050E9C
:10058600E26F7F0EE36F000EE46FD3DEDCA309D0CB
:10059600020EE16F050EE26F7B0EE36F000EE46F55
:0405A600C8DE120099
:1005AA00A6A202D00000FCD7A69CDEC0A9FFDFC02D
:1005BA00A8FFA69EA684F2CF00F0F29E550EA76E63
:1005CA00AA0EA76EA68200BE02D0F29E01D0F28EBB
:0E05DA00A694A1B802D00000FCD7A198120090
:1005E800959695949598959A959C959E83968394BF
:1005F800839E839C839A839837DD36DD35DD838A35
:10060800838883862EDD83962FDD83862ADD839675
:100618002BDD838626DD839627DD8398838621DD7F
:10062800839622DD83861DDD8396839A838E838657
:1006380018DD839619DD839E8388838612DD839671
:10064800839883860EDD83960FDD83860ADD839685
:100658008388838606DD839607DD8398838601DD9C
:100668008396838E838C838A83888386FADC839639
:08067800FBDC0001D787120032
:100680000900F5CFE6FF0006FBE10106F9E11200E3
:10069000A69CDDC0A9FFA69EA680A8CF00F01200F0
:1006A0000001D7BF67D0000ED31902E1000ED219A6
:1006B00061E1DCB515D0D6B713D0010EE16F010EA4
:1006C000E26FAB0EE36F000EE46F36DE020EE16FF9
:1006D000010EE26F960EE36F000EE46F2DDE4AD03E
:1006E000DCA523D0D6B721D0DC95010EE16F010E39
:1006F000E26F4B0EE36F000EE46F1EDE020EE16F41
:10070000010EE26F5C0EE36F000EE46F15DE0B0E60
:100710000B6E260E0C6E5D0E0D6E0D2EFED70C2E82
:10072000FCD70B2EFAD700000000DCB523D0D6A7EB
:1007300021D0D697010EE16F010EE26F3A0EE36F02
:10074000000EE46FF9DD020EE16F010EE26F180E8C
:10075000E36F000EE46FF0DD0B0E0B6E260E0C6ED9
:100760005D0E0D6E0D2EFED70C2EFCD70B2EFAD77C
:1007700000000000000ED31902E1010ED21924E19D
:10078000010EE16F010EE26F290EE36F000EE46FC0
:10079000D3DD81DE000ED51902E1000ED41907E188
:1007A000020EE16F0E0EE26F310EE36F7BDD000E85
:1007B000D51902E1010ED41907E1020EE16F0E0E08
:1007C000E26F320EE36F6EDD000ED31902E1020E0E
:1007D000D21924E1010EE16F010EE26F6D0EE36F9D
:1007E000000EE46FA9DD57DE000ED51902E1000E00
:1007F000D41907E1020EE16F0E0EE26F310EE36FC6
:1008000051DD000ED51902E1010ED41907E1020EE7
:10081000E16F0E0EE26F320EE36F44DDD7AF40D0D2
:10082000010EE16F010EE26F830EE36F000EE46FC5
:1008300083DD000E006E9551005C02E194511408B6
:1008400002E2946B956B000E951902E1140E941957
:1008500026E1946B956BD44BD52B000ED51902E194
:10086000020ED41902E1D46BD56B000ED51902E14A
:10087000000ED41907E1020EE16F0E0EE26F310E89
:10088000E36F10DD000ED51902E1010ED41907E166
:10089000020EE16F0E0EE26F320EE36F03DDFBDD41
:0208A000120044
:1008A20082B002D00001D78D82A055D00001D7AD11
:1008B20052D0010EE76F48EC00F0D79DD7BF4BD066
:1008C200D24BD32B000ED31902E1030ED21943E10E
:1008D200D26BD36B010EDE6FD8C0DFF065DE1A0E6D
:1008E2000C6EF80E0D6E0D2EFED70C2EFCD70000EE
:1008F200030E0001DE6F000ED7BB010EDF6F54DE68
:100902001A0E0C6EF80E0D6E0D2EFED70C2EFCD7A5
:100912000000020E0001DE6FDAC0DFF045DE1A0EC3
:100922000C6EF80E0D6E0D2EFED70C2EFCD70000AD
:10093200040E0001DE6F000EDCB3010EDF6F34DE49
:100942001A0E0C6EF80E0D6E0D2EFED70C2EFCD765
:1009520000000001DC8582B202D00001DC8182A2AB
:1009620032D00001DCA12FD0010EE76F48EC00F07D
:10097200DC91000ED51902E1000ED4190FE1000E30
:10098200D31902E1010ED21902E1D84BD92B000E84
:10099200D31902E1020ED219D8B4D77B000ED519B1
:1009A20002E1010ED4190FE1000ED31902E1010E8A
:1009B200D21902E1DA4BDB2B000ED31902E1020E4F
:1009C200D219D8B4DC7382B402D00001D68582A4D5
:1009D20036D00001D6A533D0010EE76F48EC00F007
:1009E200D695000ED51902E1000ED41911E1000EC0
:1009F200D31902E1010ED21904E1010ED85F000EF3
:100A0200D95B000ED31902E1020ED219D8B4D77BFA
:100A1200000ED51902E1010ED41911E1000ED3190D
:100A220002E1010ED21904E1010EDA5F000EDB5B76
:100A3200000ED31902E1020ED219D8B4DC7382B8C7
:100A420002D00001D68382A825D00001D6A322D0ED
:100A5200010EE76F48EC00F0D693000ED91902E1BF
:100A6200000ED81907E1000EDB1902E1000EDA19B7
:100A720001E110D0000ED31902E1000ED2190AE1F1
:100A8200D7BF04D0A76BA86BA96BAA6BD77FD7BFC0
:100A920001D0D6870001D7BB04D0D8C0BCF0D9C0E2
:100AA200BDF0D7AB0DD0D8C000F0D9C001F0050E13
:100AB200046E000E056EC6DC00C0BCF001C0BDF0C5
:100AC200DCB304D0DAC0BEF0DBC0BFF0DCA30DD0D3
:100AD200DAC000F0DBC001F0050E046E000E056EF8
:100AE200B1DC00C0BEF001C0BFF082AAD68982AAE2
:100AF20017D0D6A915D0010EE76F48EC00F0D699B1
:100B0200000ED31902E1000ED2190AE0D44BD52B04
:100B1200000ED51902E1020ED41902E1D46BD56B95
:020B22001200BF
:100B24000001D7BF02D0C66BC76BD7AF1ED0000E73
:100B3400DB1902E1000EDA1918E0000EAA1902E12D
:100B44000A0EA91904E1A96BAA6BC64BC72BC7519E
:100B5400BF1902E1BE51C61903E1D781D7892FDC41
:0C0B6400D7A902D032DC01D050DC120016
:100B70000001D7BF02D0C46BC56BD7AF1ED0000E2B
:100B8000D91902E1000ED81918E0000EA81902E1E7
:100B90000A0EA71904E1A76BA86BC44BC52BC5515E
:100BA000BD1902E1BC51C41903E1D681D78503DC2C
:0C0BB000D7A502D00CDC01D02ADC12001A
:100BBC000001D7AF12D0D6B110D0000ED91902E176
:100BCC00000ED8190AE0000EC95D02E10A0EC85DDC
:100BDC0003E3C86BC96B80700FD0D7AF0CD0D6A114
:100BEC000AD0000EC95D02E1020EC85D03E3C86BBA
:100BFC00C96B807001D08090000ECD1902E1050EFA
:100C0C00CC1903E1CC6BCD6B8076D7AF12D0D7B1BA
:100C1C0010D0000EDB1902E1000EDA190AE0000E0A
:100C2C00CB5D02E10A0ECA5D03E3CA6BCB6B81702C
:100C3C000FD0D7AF0CD0D7A10AD0000ECB5D02E1FC
:100C4C00020ECA5D03E3CA6BCB6B817001D081903D
:020C5C00120084
:100C5E00E6EC06F00F0EC16E070EB46E3C0ED76EAC
:100C6E00B00ED66E3C0ECF6EB00ECE6EF28EF28CF5
:100C7E00F28AF2949E90F18E810ED56EA10ECD6EFB
:100C8E000001D79FD79DDC91D695D693D699DC954A
:100C9E00D691D791D793D69FD69BD69DD795D799D8
:100CAE008092010EDD6FEDDC00C0D8F0000ED96F22
:100CBE00030EDD6FE6DC00B002D0D79B01D0D78BE0
:100CCE00020EDD6FDEDC00C0DAF0000EDB6F040E0C
:100CDE00DD6FD7DC00B002D0DC9301D0DC83926AEA
:100CEE003F0E946E936A79DC010EE76F48EC00F0CC
:100CFE000C0EE76F48EC00F0CDDDCBDCFDD7FFD757
:100DCC0010EE18F0BE0E006E010E016E0E0EF66ED9
:0E0DDC000D0EF76E000EF86E40EC03F01200E4
:100D0E002020202020434F4E544147454D20202087
:010D1E0000D4
:100D1F0050524F4752414D45204E554D45524F3A37
:010D2F0000C3
:100D30002020202020504152414E444F202020208E
:010D400000B2
:100D410045544543204C4155524F20474F4D455343
:010D510000A1
:100D520020203341204D4543412032303231202082
:010D62000090
:0E0D630050524F4752414D4520556E2E3A00DA
:040D71006469610050
:040D750068202000D2
:100D7900434F4E54414E444F3A202020444953504A
:010D89000069
:020D8A00000067
:100D8C002020202052454D4544494F5320202020FF
:010D9C000056
:020D9D00000054
:020D9F00000052
:100DA100202044495350454E53455220444520206C
:010DB1000041
:020DB20000003F
:020DB40000003D
:020DB60000003B
:020DB800000039
:020DBA00000037
:020DBC00000035
:020DBE00000033
:020DC000000031
:020DC20000002F
:020DC40000002D
:020DC60000002B
:020DC800000029
:020DCA00000027
:020000040030CA
:0E000000000C1F1EFF8381FF0FC00FE00F409A
:00000001FF
