:04000000F5EF0DF01B
:1000080000C017F00CC016F00DC015F09EA018D057
:100018009E903C0ECF6EB00ECE6E0001E14BE22BEF
:10002800E74BE82BE54BE62BF54BF62BF34BF42B84
:10003800764B772BED4BEE2BFB4BFC2BFD4BFE2B26
:10004800F2A40ED00001F2943C0ED76EB00ED66E1C
:10005800D34BD42BCF4BD02BCD4BCE2BD14BD22B3C
:10006800D3EC0CF0C3EC0DF0A1EC0CF071EC0CF03F
:1000780041EC0CF017C000F016C00CF015C00DF0E4
:02008800110065
:06008A000000000012005E
:100090000F0E0C6E470E0D6E0D2EFED70C2EFCD7DC
:0600A00000000000120048
:0A00A600210E0D6E0D2EFED7120084
:1000B000010125BF02D0839E01D0838E25BD02D0D1
:1000C000839C01D0838C25BB02D0839A01D0838A84
:1000D00025B902D0839801D0838800BD02D08384E3
:1000E00001D083948386D1DF839625B702D0839E87
:1000F00001D0838E25B502D0839C01D0838C25B39B
:1001000002D0839A01D0838A25B102D0839801D08E
:10011000838800BD02D0838401D083948386B5DFB9
:0E012000839600AD02D0B4DF01D0BDDF120027
:10012E000001FF8B010100990001E36BE46B1200EB
:0E013E000101009D24C125F1B4DF008D1200E7
:0E014C00010100870001FF9FF16BF26B1200B2
:0E015A00010100850001FF9DE96BEA6B1200B8
:0E016800010100950001FF8DE96BEA6B1200AA
:0E0176000101008B00930001EB6BEC6B12009B
:0E018400010100970001FF8FF16BF26B12007A
:0E0192000101009B00830001EB6BEC6B12007F
:1001A0000001FF9B010100890001E36BE46B120079
:1001B000000E0101081902E1000E071927E0000EE8
:1001C0000001EC5D02E1140EEB5D18E281942F0E4C
:1001D0000C6EBF0E0D6E0D2EFED70C2EFCD7000040
:1001E00000008184060E0C6E300E0D6E0D2EFED7B3
:1001F0000C2EFCD700008194EB4BEC2B000EEC197D
:1002000002E1140EEB1901E1C4DF03D00101009BF0
:040210000093120045
:10021400000E0101081902E1000E07192BE0000E7F
:100224000001EC5D02E1140EEB5D18E28194310EE5
:100234000C6E0B0E0D6E0D2EFED70C2EFCD700008F
:1002440000008184040E0C6EE40E0D6E0D2EFED79C
:100254000C2EFCD700008194EB4BEC2B000EEC1918
:1002640002E1140EEB1906E184DF010E0101075FC0
:06027400000E085B120001
:10027A00000E0101041902E1000E031927E0000E25
:10028A000001F25D02E1140EF15D18E280982F0E72
:10029A000C6EBF0E0D6E0D2EFED70C2EFCD7000075
:1002AA0000008088060E0C6E300E0D6E0D2EFED7E5
:1002BA000C2EFCD700008098F14BF22B000EF2199D
:1002CA0002E1140EF11901E158DF04D0010100978F
:0602DA000001FF9F12006D
:1002E000000E0101061902E1000E051927E0000EBB
:1002F0000001EA5D02E1140EE95D18E2809A2F0E1A
:100300000C6EBF0E0D6E0D2EFED70C2EFCD700000E
:100310000000808A060E0C6E300E0D6E0D2EFED77C
:100320000C2EFCD70000809AE94BEA2B000EEA194C
:1003300002E1140EE91901E117DF04D00101009573
:060340000001FF9D120008
:10034600000E0101061902E1000E05192BE0000E50
:100356000001EA5D02E1140EE95D18E2809A310EB1
:100366000C6E0B0E0D6E0D2EFED70C2EFCD700005C
:100376000000808A040E0C6EE40E0D6E0D2EFED764
:100386000C2EFCD70000809AE94BEA2B000EEA19E6
:1003960002E1140EE91906E1DDDE010E0101055F39
:0603A600000E065B1200D0
:1003AC00000E0101021902E1000E01192BE0000EF2
:1003BC000001E45D02E1140EE35D18E28092310E5F
:1003CC000C6E0B0E0D6E0D2EFED70C2EFCD70000F6
:1003DC0000008082040E0C6EE40E0D6E0D2EFED706
:1003EC000C2EFCD700008092E34BE42B000EE4199A
:1003FC0002E1140EE31906E194DE010E0101015F26
:06040C00000E025B12006D
:10041200000E0101041902E1000E03192BE0000E87
:100422000001F25D02E1140EF15D18E28098310ED6
:100432000C6E0B0E0D6E0D2EFED70C2EFCD700008F
:1004420000008088040E0C6EE40E0D6E0D2EFED799
:100452000C2EFCD700008098F14BF22B000EF21903
:1004620002E1140EF11906E170DE010E0101035FD3
:06047200000E045B120005
:10047800000E0101021902E1000E011927E0000E29
:100488000001E45D02E1140EE35D18E280922F0E94
:100498000C6EBF0E0D6E0D2EFED70C2EFCD7000075
:1004A80000008082060E0C6E300E0D6E0D2EFED7EB
:1004B8000C2EFCD700008092E34BE42B000EE419CD
:1004C80002E1140EE31901E167DE04D00001FF9B8D
:0604D80001010099120071
:1004DE0010D0800E01011F6F1AD0C00E1F6F17D0E3
:1004EE00940E1F6F14D0D40E1F6F11D0800E1F6F7D
:1004FE000ED001011F51010AECE01F51020AEDE07E
:10050E001F51030AEDE01F51040AEDE0EFD720055D
:10051E00006E1F51002600C01FF1008D00C025F196
:0E052E00C0DD009D21C125F1BCDD008D120055
:10053C0010D0800E01011F6F1AD0C00E1F6F17D084
:10054C00940E1F6F14D0D40E1F6F11D0800E1F6F1E
:10055C000ED001011F51010AECE01F51020AEDE01F
:10056C001F51030AEDE01F51040AEDE0EFD72005FF
:10057C00006E1F51002600C01FF100C025F192DD56
:10058C00009D236B23512125E96E000E2221EA6E7A
:10059C00EE520BE023512125E96E000E2221EA6E6A
:0E05AC00EECF24F1C6DD232BEDD7008D12001B
:1005BA00000E006E0001EE51005C02E1ED510308ED
:1005CA0002E2ED6BEE6B000EEE1902E1030EED197D
:1005DA000CE1ED6BEE6B8074EF4BF02B010109B768
:0C05EA0004D00001EF6BF06B8094120055
:1005F600086A096A100E0C6E013408360936045072
:10060600085E0550D8A0053C095ED8B007D0045056
:1006160008260550D8B0053C0926D8900036013684
:060626000C2EEAD71200C1
:10062C000B6A0A6A096A00500402F4CF09F0F3CF8E
:10063C0008F001500502F4CF0BF0F3CF0AF0005094
:10064C000502F3500926F4500A22E86A0B220150E5
:10065C000402F3500926F4500A22E86A0B2208C05F
:10066C0000F009C001F00AC002F00BC003F0120048
:10067C00000E0001F81902E1000EF7193FE10A0E15
:10068C00046E000E056E11C100F012C101F0ADDF59
:10069C0000C01DF101C01EF10A0E046E000E056EA5
:1006AC0011C100F012C101F0A0DF08C000F009C0B8
:1006BC0001F000C01CF1020E01011F6F070E206F2C
:1006CC00300E1D25216F05DF300E1C25246F31DD0A
:1006DC0009BD09D0020E1F6F0A0E206F530E216F39
:1006EC00000E226F25DF09AD09D0020E1F6F0A0E16
:1006FC00206F290E216F000E226F1ADF000E0001F1
:10070C00F81902E1010EF7193FE10A0E046E000E12
:10071C00056E0DC100F00EC101F067DF00C01DF1C8
:10072C0001C01EF10A0E046E000E056E0DC100F024
:10073C000EC101F05ADF08C000F009C001F000C082
:10074C001CF1020E01011F6F070E206F300E1D25CC
:10075C00216FBFDE300E1C25246FEBDC09BF09D0E6
:10076C00020E1F6F0A0E206F530E216F000E226FA8
:10077C00DFDE09AF09D0020E1F6F0A0E206F290EA3
:10078C00216F000E226FD4DE000E0001F81902E179
:10079C00020EF7193FE10A0E046E000E056E0FC132
:1007AC0000F010C101F021DF00C01DF101C01EF1ED
:1007BC000A0E046E000E056E0FC100F010C101F0A0
:1007CC0014DF08C000F009C001F000C01CF1020EDB
:1007DC0001011F6F070E206F300E1D25216F79DE72
:1007EC00300E1C25246FA5DC09B909D0020E1F6F31
:1007FC000A0E206F530E216F000E226F99DE09A98D
:10080C0009D0020E1F6F0A0E206F290E216F000EE9
:10081C00226F8EDE000E0001F81902E1030EF719AB
:10082C003FE10A0E046E000E056E0AC100F00BC10A
:10083C0001F0DBDE00C01DF101C01EF10A0E046EDA
:10084C00000E056E0AC100F00BC101F0CEDE08C02F
:10085C0000F009C001F000C01CF1020E01011F6F75
:10086C00070E206F300E1D25216F33DE300E1C2538
:10087C00246F5FDC09BB09D0020E1F6F0A0E206FBC
:10088C00530E216F000E226F53DE09AB09D0020EFE
:10089C001F6F0A0E206F290E216F000E226F48DE8B
:1008AC00000E0001F81902E1000EF71909E1020E21
:1008BC0001011F6F0F0E206F300E1725216F09DEFF
:1008CC00000E0001F81902E1010EF71909E1020E00
:1008DC0001011F6F0F0E206F300E1925216FF9DDEE
:1008EC00000E0001F81902E1020EF71909E1020EDF
:1008FC0001011F6F0F0E206F300E1325216FE9DDE4
:10090C00000E0001F81902E1030EF71909E1020EBD
:10091C0001011F6F0F0E206F300E1525216FD9DDD1
:02092C001200B7
:10092E000001FFBB04D0010100B901D0009100010C
:10093E00FFAB04D0010100B901D097DD0001FFBB70
:10094E0004D0010100A901D02ADD010100B705D0B4
:10095E000001FFBF02D001010991010100A704D0DF
:10096E000001FFBF01D082DC010100B704D00001FD
:10097E00FFAF01D047DD010100B505D00001FFBD7D
:10098E0002D00101009F010100A504D00001FFBDAE
:10099E0001D09FDC010100B504D00001FFAD01D0F4
:1009AE00CBDC010100BB03D000B301D0099300AB37
:1009BE0004D000B302D0D8EC00F0010100BB03D08C
:0809CE0000A301D020DC12009F
:1009D600A6A202D00000FCD7A69C1CC1A9FF1DC17F
:1009E600A8FFA69EA684F2CF00F0F29E550EA76E33
:1009F600AA0EA76EA68200BE02D0F29E01D0F28E8B
:0E0A0600A694A1B802D00000FCD7A19812005F
:100A1400000E006E0001FC51005C02E1FB5107086E
:100A240002E2FB6BFC6B000EFC1902E1070EFB19E2
:100A340004E1FB6BFC6B01010C8101010CA1B9D039
:100A4400000E0001F81902E1000EF7191DE1000E75
:100A5400FA1902E1010EF91917E1000E006EFE51B8
:100A6400005C02E1FD51050802E2FD6BFE6B000E25
:100A7400FE1902E1050EFD1907E1FD6BFE6B020E86
:100A840001011127000E1223000E0001F81902E1E2
:100A9400010EF7191DE1000EFA1902E1010EF91910
:100AA40017E1000E006EFE51005C02E1FD510508E5
:100AB40002E2FD6BFE6B000EFE1902E1050EFD194C
:100AC40007E1FD6BFE6B020E01010D27000E0E23E4
:100AD400000E0001F81902E1020EF7191DE1000EE3
:100AE400FA1902E1010EF91917E1000E006EFE5128
:100AF400005C02E1FD51050802E2FD6BFE6B000E95
:100B0400FE1902E1050EFD1907E1FD6BFE6B020EF5
:100B140001010F27000E1023000E0001F81902E155
:100B2400030EF7191DE1000EFA1902E1010EF9197D
:100B340017E1000E006EFE51005C02E1FD51050854
:100B440002E2FD6BFE6B000EFE1902E1050EFD19BB
:100B540007E1FD6BFE6B020E01010A27000E0B2359
:100B64000101000E006E1251005C02E111511808DF
:100B740002E2116B126B000E006E0E51005C02E17A
:100B84000D51180802E20D6B0E6B000E006E105131
:100B9400005C02E10F51180802E20F6B106B000EAB
:100BA400006E0B51005C02E10A51180802E20A6B64
:040BB4000B6B1200B5
:100BB80001010CB908D00001FFB505D0FFB303D07F
:100BC800FFB701D023D00001000EF05D02E1C80E8E
:100BD800EF5D02E2EEDC1AD001010CA904D00C99F9
:100BE8000001D76BD86B0001FFA503D0FF95D56B2B
:100BF800D66BFFA303D0FF93516A526AFFA703D0B5
:0E0C0800FF974F6A506AEF6BF06B80941200FA
:100C160082B002D00101098582A0D4D0010109A5C4
:100C2600D1D0010E256F58EC00F0099509B7CAD04E
:100C36000001F94BFA2B000EFA1902E1040EF9191C
:100C4600D8A4C0D0F96BFA6B010E01011C6F11C15B
:100C56001DF1BEDE1A0E0C6EF80E0D6E0D2EFED7B1
:100C66000C2EFCD70000030E01011C6F000E09BDFF
:100C7600010E1D6FADDE1A0E0C6EF80E0D6E0D2EEA
:100C8600FED70C2EFCD70000020E01011C6F0DC111
:100C96001DF19EDE1A0E0C6EF80E0D6E0D2EFED791
:100CA6000C2EFCD70000040E01011C6F000E09BFBC
:100CB600010E1D6F8DDE1A0E0C6EF80E0D6E0D2ECA
:100CC600FED70C2EFCD70000050E01011C6F0FC1CC
:100CD6001DF17EDE1A0E0C6EF80E0D6E0D2EFED771
:100CE6000C2EFCD70000060E01011C6F000E09B980
:100CF600010E1D6F6DDE1A0E0C6EF80E0D6E0D2EAA
:100D0600FED70C2EFCD70000070E01011C6F0AC18E
:100D16001DF15EDE1A0E0C6EF80E0D6E0D2EFED750
:100D26000C2EFCD70000080E01011C6F000E09BB3B
:100D3600010E1D6F4DDE1A0E0C6EF80E0D6E0D2E89
:100D4600FED70C2EFCD70000090E01011C6F17C13F
:100D56001DF13EDE1A0E0C6EF80E0D6E0D2EFED730
:100D66000C2EFCD700000A0E01011C6F19C11DF1E3
:100D76002FDE1A0E0C6EF80E0D6E0D2EFED70C2EF3
:100D8600FCD700000B0E01011C6F13C11DF120DE04
:100D96001A0E0C6EF80E0D6E0D2EFED70C2EFCD70D
:100DA60000000C0E01011C6F15C11DF111DE1A0E9B
:100DB6000C6EF80E0D6E0D2EFED70C2EFCD7000015
:100DC60001010C8B82B203D001010C8520DE82A2C8
:100DD60001D101010CA5FED0010E256F58EC00F0E3
:100DE6000C950C91000E0001F81902E1000EF7199E
:100DF60033E1000EFA1902E1010EF91903E10101CE
:100E0600114B122B000E0001FA1902E1020EF9191C
:100E160002E10101097D000E0001FA1902E1030E4B
:100E2600F91903E10101174B182B0101000E006EA1
:100E36001851005C02E11751040804E2010E176F15
:100E4600000E186F000E006E1251005C02E1115187
:100E5600180802E2116B126B000E0001F81902E18C
:100E6600010EF71933E1000EFA1902E1010EF91924
:100E760003E101010D4B0E2B000E0001FA1902E1F0
:100E8600020EF91902E10101097F000E0001FA19AB
:100E960002E1030EF91903E10101194B1A2B0101B5
:100EA600000E006E1A51005C02E11951040804E2BA
:100EB600010E196F000E1A6F000E006E0E51005CC7
:100EC60002E10D51180802E20D6B0E6B000E0001D7
:100ED600F81902E1020EF71933E1000EFA1902E1E0
:100EE600010EF91903E101010F4B102B000E000151
:100EF600FA1902E1020EF91902E101010979000E5F
:100F06000001FA1902E1030EF91903E10101134B7D
:100F1600142B0101000E006E1451005C02E1135106
:100F2600040804E2010E136F000E146F000E006E2B
:100F36001051005C02E10F51180802E20F6B106BB2
:100F4600000E0001F81902E1030EF71933E1000E55
:100F5600FA1902E1010EF91903E101010A4B0B2B03
:100F6600000E0001FA1902E1020EF91902E101016F
:100F7600097B000E0001FA1902E1030EF91903E1DB
:100F86000101154B162B0101000E006E1651005C77
:100F960002E11551040804E2010E156F000E166FEA
:100FA600000E006E0B51005C02E10A51180802E2C5
:100FB6000A6B0B6B17C101F118C102F119C103F1DC
:100FC6001AC104F113C105F114C106F115C107F1E7
:100FD60016C108F182B402D001010C8782A410D197
:100FE60001010CA70DD1010E256F58EC00F00C97EE
:100FF600000E0001F81902E1000EF71937E1000EA4
:10100600FA1902E1010EF91905E1010E0101115F5C
:10101600000E125B000E0001FA1902E1020EF91928
:1010260002E10101097D000E0001FA1902E1030E39
:10103600F91905E1010E0101175F000E185B0101A8
:10104600000E185D02E1010E175D04E2040E176F33
:10105600000E186F000E006E1251005C02E1115175
:10106600180804E2180E116F000E126F000E000130
:10107600F81902E1010EF71937E1000EFA1902E13B
:10108600010EF91905E1010E01010D5F000E0E5B5F
:10109600000E0001FA1902E1020EF91902E101013E
:1010A600097F000E0001FA1902E1030EF91905E1A4
:1010B600010E0101195F000E1A5B0101000E1A5D97
:1010C60002E1010E195D04E2040E196F000E1A6F9B
:1010D600000E006E0E51005C02E10D51180804E28C
:1010E600180E0D6F000E0E6F000E0001F81902E1CA
:1010F600020EF71937E1000EFA1902E1010EF9198D
:1011060005E1010E01010F5F000E105B000E0001EC
:10111600FA1902E1020EF91902E101010979000E3C
:101126000001FA1902E1030EF91905E1010E0101A8
:10113600135F000E145B0101000E145D02E1010E47
:10114600135D04E2040E136F000E146F000E006EA2
:101156001051005C02E10F51180804E2180E0F6FDF
:10116600000E106F000E0001F81902E1030EF719C8
:1011760037E1000EFA1902E1010EF91905E1010E37
:1011860001010A5F000E0B5B000E0001FA1902E175
:10119600020EF91902E10101097B000E0001FA199C
:1011A60002E1030EF91905E1010E0101155F000EBA
:1011B600165B0101000E165D02E1010E155D04E2EB
:1011C600040E156F000E166F000E006E0B51005CBC
:1011D60002E10A51180804E2180E0A6F000E0B6F9E
:1011E60017C101F118C102F119C103F11AC104F1C5
:1011F60013C105F114C106F115C107F116C108F1B5
:1012060082B802D001010C8382A844D001010CA34C
:1012160041D0010E256F58EC00F00C93000E121908
:1012260002E1000E111913E1000E0E1902E1000E83
:101236000D190DE1000E101902E1000E0F1907E15C
:10124600000E0B1902E1000E0A1901E123D0000E6F
:101256000001FA1902E1000EF9191CE101010CB9AD
:1012660019D00001FFB516D0FFB314D0FFB712D0C6
:10127600010109B709D00001D36BD46BCF6BD06BDA
:10128600CD6BCE6BD16BD26B0101097709B702D05A
:101296000001FF81010109BD04D011C1DBF012C1BB
:1012A600DCF009AD0ED011C100F012C101F0050E3F
:1012B600046E000E056E16EC03F000C0DBF001C0F4
:1012C600DCF009BF04D00DC1D9F00EC1DAF009AFC8
:1012D6000ED00DC100F00EC101F0050E046E000E19
:1012E600056E16EC03F000C0D9F001C0DAF009B9BA
:1012F60004D00FC1DFF010C1E0F009A90ED00FC174
:1013060000F010C101F0050E046E000E056E16EC1D
:1013160003F000C0DFF001C0E0F009BB04D00AC151
:10132600DDF00BC1DEF009AB0ED00AC100F00BC137
:1013360001F0050E046E000E056E16EC03F000C0FB
:10134600DDF001C0DEF082BA02D00001FF8982AA78
:101356003FD00001FFA93CD0010E0101256F58ECDA
:1013660000F00001FF99000EFA1902E1000EF919CA
:101376000AE0F74BF82B000EF81902E1040EF719F4
:1013860002E1F76BF86B01010CB908D00001FFB55B
:1013960005D0FFB303D0FFB701D01AD001010CA9C5
:1013A60003D00001D76BD86B0001FFA502D0D56B27
:1013B600D66BFFA302D0516A526AFFA702D04F6ACA
:1013C600506A01010C990001FF95FF93FF978094E5
:0213D600120003
:1013D800010109B777D0000E0001FA1902E1000EE9
:1013E800F91970E101010CBB19D00001FFB116D049
:1013F800010E01011F6F010E206F180E216F000EE4
:10140800226F9EEC02F0020E1F6F010E206F3E0E3F
:10141800216F000E226F9EEC02F054D001010CAB3C
:1014280027D00001FFB124D001010C9B010E1F6FD2
:10143800010E206F2D0E216F000E226F9EEC02F020
:10144800020E1F6F010E206F9A0E216F000E226F81
:101458009EEC02F00B0E0B6E260E0C6E5D0E0D6EE2
:101468000D2EFED70C2EFCD70B2EFAD7000000004D
:1014780001010CBB27D00001FFA124D0FF91010E70
:1014880001011F6F010E206F890E216F000E226F60
:101498009EEC02F0020E1F6F010E206FBC0E216F32
:1014A800000E226F9EEC02F00B0E0B6E260E0C6ED9
:1014B8005D0E0D6E0D2EFED70C2EFCD70B2EFAD717
:1014C80000000000000E0001FA1902E1010EF919EE
:1014D8004DE1010E01011F6F010E206FAB0E216F50
:1014E800000E226F9EEC02F03EEC03F0000E0001AD
:1014F800F81902E1000EF71909E1020E01011F6F48
:10150800010E206F310E216F6FEC02F0000E00010A
:10151800F81902E1010EF71909E1020E01011F6F26
:10152800010E206F320E216F6FEC02F0000E0001E9
:10153800F81902E1020EF71909E1020E01011F6F05
:10154800010E206F330E216F6FEC02F0000E0001C8
:10155800F81902E1030EF71909E1020E01011F6FE4
:10156800010E206F340E216F6FEC02F0000E0001A7
:10157800FA1902E1020EF9194DE1010E01011F6F7E
:10158800010E206F680E216F000E226F9EEC02F094
:101598003EEC03F0000E0001F81902E1000EF71905
:1015A80009E1020E01011F6F010E206F310E216F3C
:1015B8006FEC02F0000E0001F81902E1010EF719B4
:1015C80009E1020E01011F6F010E206F320E216F1B
:1015D8006FEC02F0000E0001F81902E1020EF71993
:1015E80009E1020E01011F6F010E206F330E216FFA
:1015F8006FEC02F0000E0001F81902E1030EF71972
:1016080009E1020E01011F6F010E206F340E216FD8
:101618006FEC02F0000E0001FA1902E1030EF9194D
:101628004DE1010E01011F6F010E206F570E216F52
:10163800000E226F9EEC02F03EEC03F0000E00015B
:10164800F81902E1000EF71909E1020E01011F6FF6
:10165800010E206F310E216F6FEC02F0000E0001B9
:10166800F81902E1010EF71909E1020E01011F6FD5
:10167800010E206F320E216F6FEC02F0000E000198
:10168800F81902E1020EF71909E1020E01011F6FB4
:10169800010E206F330E216F6FEC02F0000E000177
:1016A800F81902E1030EF71909E1020E01011F6F93
:1016B800010E206F340E216F6FEC02F0010109A7B3
:1016C80068D0010E1F6F010E206F780E216F000E7B
:1016D800226F9EEC02F0000E006E00017751005C54
:1016E80002E17651140802E2766B776B000E7719E7
:1016F80002E1140E76194BE1766B776BF74BF82BFA
:10170800000EF81902E1040EF71902E1F76BF86B05
:10171800000EF81902E1000EF71909E1020E0101A5
:101728001F6F010E206F310E216F6FEC02F0000E5B
:101738000001F81902E1010EF71909E1020E010191
:101748001F6F010E206F320E216F6FEC02F0000E3A
:101758000001F81902E1020EF71909E1020E010170
:101768001F6F010E206F330E216F6FEC02F0000E19
:101778000001F81902E1030EF71909E1020E01014F
:101788001F6F010E206F340E216F6FEC02F03EECDC
:0417980003F0120048
:10179C00959695949598959A959C959E83968394F9
:1017AC00839E839C839A839848EC00F048EC00F06D
:1017BC0048EC00F0838A8388838645EC00F083969E
:1017CC0048EC00F0838645EC00F0839648EC00F082
:1017DC00838645EC00F0839648EC00F08398838672
:1017EC0045EC00F0839648EC00F0838645EC00F065
:1017FC008396839A838E838645EC00F0839648EC1F
:10180C0000F0839E8388838645EC00F08396839852
:10181C00838645EC00F0839648EC00F0838645EC1B
:10182C0000F083968388838645EC00F0839648EC21
:10183C0000F08398838645EC00F08396838E838C2E
:10184C00838A8388838645EC00F0839648EC00F00D
:06185C000101008D1200E5
:101862000900F5CFE6FF0006FBE10106F9E11200EF
:10187200A69C1BC1A9FFA69EA680A8CF00F01200BD
:10188200010109B702D04F6A506A09A728D0000E99
:101892000B1902E1000E0A1922E0000E0001D21912
:1018A20002E10A0ED11904E1D16BD26B4F4A502AE0
:1018B2005050DE1902E1DD514F1809E1FF870101A5
:1018C200098315C107F116C108F1BBEC00F0010153
:1018D20009A303D097EC04F002D0DCEC05F012006F
:1018E200010109B702D0516A526A09A728D0000E35
:1018F200101902E1000E0F1922E0000E0001CE19AC
:1019020002E10A0ECD1904E1CD6BCE6B514A522A87
:101912005250E01902E1DF51511809E1FF83010140
:10192200008F13C105F114C106F1ADEC00F0010105
:1019320000AF03D097EC04F002D0DCEC05F012000B
:10194200010109B703D00001D56BD66B010109A7CC
:1019520028D0000E0E1902E1000E0D1922E0000E31
:101962000001D01902E10A0ECF1904E1CF6BD06B4E
:10197200D54BD62BD651DA1902E1D951D51909E145
:10198200FF850101098119C103F11AC104F1A6EC15
:1019920000F0010109A103D097EC04F002D0DCECC5
:0419A20005F012003A
:1019A600010109A713D00CB911D0000E121902E1DA
:1019B600000E11190BE0000E0001E25D02E10A0EB5
:1019C600E15D03E3E16BE26B807022D0010109A7C0
:1019D6000DD00CA90BD0000E0001E25D02E1020E53
:1019E600E15D03E3E16BE26B807012D00001000E53
:1019F600006EFA51005C02E1F951000808E2000E9F
:101A0600F81902E1000EF71902E1808001D08090FA
:101A1600000EE81902E1050EE71903E1E76BE86B32
:101A26008076010109A715D00001FFB512D0000E7E
:101A360001010E1902E1000E0D190BE0000E000166
:101A4600E65D02E10A0EE55D03E3E56BE66B817098
:101A560022D0010109A70DD00001FFA50AD0000E72
:101A6600E65D02E1020EE55D03E3E56BE66B817080
:101A760012D00001000E006EFA51005C02E1F9512D
:101A8600000808E2000EF81902E1010EF71902E15A
:101A9600818001D08190010109A715D00001FFB313
:101AA60012D0000E0101101902E1000E0F190BE011
:101AB600000E0001F65D02E10A0EF55D03E3F56B2B
:101AC600F66B817222D0010109A70DD00001FFA398
:101AD6000AD0000EF65D02E1020EF55D03E3F56B3A
:101AE600F66B817212D00001000E006EFA51005C96
:101AF60002E1F951000808E2000EF81902E1020EAF
:101B0600F71902E1818201D08192010109A715D05E
:101B16000001FFB712D0000E01010B1902E1000E01
:101B26000A190BE0000E0001F45D02E10A0EF35DF6
:101B360003E3F36BF46B817622D0010109A70DD084
:101B46000001FFA70AD0000EF45D02E1020EF35D6C
:101B560003E3F36BF46B817612D00001000E006E86
:101B6600FA51005C02E1F951000808E2000EF8198A
:101B760002E1030EF71902E1818601D08196120077
:101B8600010109B703D00001D76BD86B010109A782
:101B960028D0000E121902E1000E111922E0000EE3
:101BA6000001D41902E10A0ED31904E1D36BD46BF8
:101BB600D74BD82BD851DC1902E1DB51D71909E1F3
:101BC60001010C89008117C101F118C102F197ECDE
:101BD60000F0010100A103D097EC04F002D0DCEC88
:041BE60005F01200F4
:101BEA003BEC0FF00F0EC16E070EB46E3C0ED76EB3
:101BFA00B00ED66E3C0ECF6EB00ECE6EF28EF28C5A
:101C0A00F28AF2949E90F18E810ED56EA10ECD6E5F
:101C1A000101099709950C950C970C930001FF99FE
:101C2A0001010C9B0C910C990001FF95FF93FF9702
:101C3A00FF9B010100970095009B00990001FF9FFF
:101C4A00FF9D0101009300910991009F09938092E1
:101C5A008098809A8194010E1B6F06DE00C011F1F4
:101C6A00000E126F030E1B6FFFDD00B002D0099D3C
:101C7A0001D0098D020E1B6FF7DD00C00DF1000EB9
:101C8A000E6F040E1B6FF0DD00B002D0099F01D069
:101C9A00098F050E1B6FE8DD00C00FF1000E106FF3
:101CAA00060E1B6FE1DD00B002D0099901D0098947
:101CBA00070E1B6FD9DD00C00AF1000E0B6F080E6C
:101CCA001B6FD2DD00B002D0099B01D0098B090E2F
:101CDA001B6FCADD00C017F1000E186F0A0E1B6FCA
:101CEA00C3DD00C019F1000E1A6F0B0E1B6FBCDDAD
:101CFA0000C013F1000E146F0C0E1B6FB5DD00C08F
:101D0A0015F1000E166F000E181902E1FF0E1719D1
:101D1A0004E1010E176F000E186F000E1A1902E186
:101D2A00FF0E191904E1010E196F000E1A6F000E49
:101D3A00141902E1FF0E131904E1010E136F000ECC
:101D4A00146F000E161902E1FF0E151904E1010EB7
:101D5A00156F000E166F926A3F0E946E936A19DD24
:101D6A00010E256F58EC00F00C0E256F58EC00F0B0
:0C1D7A000BEC06F0ECEC09F0FBD7FFD7F7
:101E760010EE18F0E70E006E010E016E860EF66E7D
:101E86001D0EF76E000EF86E31EC0CF011EE01F03F
:101E9600080E006E010E016E6D0EF66E1E0EF76ECA
:0A1EA600000EF86E31EC0CF0120093
:101D8600202044495350454E534552204445202077
:011D9600004C
:041D9700646961001A
:101D9B0045544543204C4155524F20474F4D4553D9
:011DAB000037
:101DAC002020202052454D4544494F5320202020CF
:011DBC000026
:021DBD00000024
:021DBF00000022
:041DC1006820200076
:101DC5005174642E20434F4D5052494D49444F5351
:011DD500000D
:0E1DD60050524F4752414D4520556E2E3A0057
:021DE4000000FD
:101DE60044495350202054454D504F20205174648F
:011DF60000EC
:101DF7002020202020504152414E444F20202020B7
:011E070000DA
:101E080020203341204D45434120323032312020BB
:011E180000C9
:101E190050524F4752414D45204E554D45524F3A2C
:011E290000B8
:101E2A002020202020434F4E544147454D2020205A
:011E3A0000A7
:021E3B000000A5
:021E3D000000A3
:021E3F000000A1
:021E410000009F
:021E430000009D
:021E450000009B
:021E4700000099
:021E4900000097
:021E4B00000095
:021E4D00000093
:021E4F00000091
:021E510000008F
:021E530000008D
:021E550000008B
:021E5700000089
:021E5900000087
:021E5B00000085
:021E5D00000083
:021E5F00000081
:021E610000007F
:021E630000007D
:021E650000007B
:021E6700000079
:021E6900000077
:021E6B00000075
:021E6D00000073
:021E6F00000071
:021E710000006F
:021E730000006D
:020000040030CA
:0E000000000C1F1EFF8381FF0FC00FE00F409A
:00000001FF
